{
  "contractName": "TierReward",
  "abi": [
    {
      "inputs": [],
      "stateMutability": "nonpayable",
      "type": "constructor"
    },
    {
      "anonymous": false,
      "inputs": [
        {
          "indexed": true,
          "internalType": "address",
          "name": "owner",
          "type": "address"
        },
        {
          "indexed": true,
          "internalType": "address",
          "name": "approved",
          "type": "address"
        },
        {
          "indexed": true,
          "internalType": "uint256",
          "name": "tokenId",
          "type": "uint256"
        }
      ],
      "name": "Approval",
      "type": "event"
    },
    {
      "anonymous": false,
      "inputs": [
        {
          "indexed": true,
          "internalType": "address",
          "name": "owner",
          "type": "address"
        },
        {
          "indexed": true,
          "internalType": "address",
          "name": "operator",
          "type": "address"
        },
        {
          "indexed": false,
          "internalType": "bool",
          "name": "approved",
          "type": "bool"
        }
      ],
      "name": "ApprovalForAll",
      "type": "event"
    },
    {
      "anonymous": false,
      "inputs": [
        {
          "indexed": true,
          "internalType": "address",
          "name": "from",
          "type": "address"
        },
        {
          "indexed": true,
          "internalType": "address",
          "name": "to",
          "type": "address"
        },
        {
          "indexed": true,
          "internalType": "uint256",
          "name": "tokenId",
          "type": "uint256"
        }
      ],
      "name": "Transfer",
      "type": "event"
    },
    {
      "inputs": [
        {
          "internalType": "address",
          "name": "to",
          "type": "address"
        },
        {
          "internalType": "uint256",
          "name": "tokenId",
          "type": "uint256"
        }
      ],
      "name": "approve",
      "outputs": [],
      "stateMutability": "nonpayable",
      "type": "function"
    },
    {
      "inputs": [
        {
          "internalType": "address",
          "name": "owner",
          "type": "address"
        }
      ],
      "name": "balanceOf",
      "outputs": [
        {
          "internalType": "uint256",
          "name": "",
          "type": "uint256"
        }
      ],
      "stateMutability": "view",
      "type": "function"
    },
    {
      "inputs": [],
      "name": "baseURI",
      "outputs": [
        {
          "internalType": "string",
          "name": "",
          "type": "string"
        }
      ],
      "stateMutability": "view",
      "type": "function"
    },
    {
      "inputs": [
        {
          "internalType": "uint256",
          "name": "tokenId",
          "type": "uint256"
        }
      ],
      "name": "getApproved",
      "outputs": [
        {
          "internalType": "address",
          "name": "",
          "type": "address"
        }
      ],
      "stateMutability": "view",
      "type": "function"
    },
    {
      "inputs": [
        {
          "internalType": "address",
          "name": "owner",
          "type": "address"
        },
        {
          "internalType": "address",
          "name": "operator",
          "type": "address"
        }
      ],
      "name": "isApprovedForAll",
      "outputs": [
        {
          "internalType": "bool",
          "name": "",
          "type": "bool"
        }
      ],
      "stateMutability": "view",
      "type": "function"
    },
    {
      "inputs": [],
      "name": "name",
      "outputs": [
        {
          "internalType": "string",
          "name": "",
          "type": "string"
        }
      ],
      "stateMutability": "view",
      "type": "function"
    },
    {
      "inputs": [
        {
          "internalType": "uint256",
          "name": "tokenId",
          "type": "uint256"
        }
      ],
      "name": "ownerOf",
      "outputs": [
        {
          "internalType": "address",
          "name": "",
          "type": "address"
        }
      ],
      "stateMutability": "view",
      "type": "function"
    },
    {
      "inputs": [
        {
          "internalType": "address",
          "name": "from",
          "type": "address"
        },
        {
          "internalType": "address",
          "name": "to",
          "type": "address"
        },
        {
          "internalType": "uint256",
          "name": "tokenId",
          "type": "uint256"
        }
      ],
      "name": "safeTransferFrom",
      "outputs": [],
      "stateMutability": "nonpayable",
      "type": "function"
    },
    {
      "inputs": [
        {
          "internalType": "address",
          "name": "from",
          "type": "address"
        },
        {
          "internalType": "address",
          "name": "to",
          "type": "address"
        },
        {
          "internalType": "uint256",
          "name": "tokenId",
          "type": "uint256"
        },
        {
          "internalType": "bytes",
          "name": "_data",
          "type": "bytes"
        }
      ],
      "name": "safeTransferFrom",
      "outputs": [],
      "stateMutability": "nonpayable",
      "type": "function"
    },
    {
      "inputs": [
        {
          "internalType": "address",
          "name": "operator",
          "type": "address"
        },
        {
          "internalType": "bool",
          "name": "approved",
          "type": "bool"
        }
      ],
      "name": "setApprovalForAll",
      "outputs": [],
      "stateMutability": "nonpayable",
      "type": "function"
    },
    {
      "inputs": [
        {
          "internalType": "bytes4",
          "name": "interfaceId",
          "type": "bytes4"
        }
      ],
      "name": "supportsInterface",
      "outputs": [
        {
          "internalType": "bool",
          "name": "",
          "type": "bool"
        }
      ],
      "stateMutability": "view",
      "type": "function"
    },
    {
      "inputs": [],
      "name": "symbol",
      "outputs": [
        {
          "internalType": "string",
          "name": "",
          "type": "string"
        }
      ],
      "stateMutability": "view",
      "type": "function"
    },
    {
      "inputs": [
        {
          "internalType": "uint256",
          "name": "index",
          "type": "uint256"
        }
      ],
      "name": "tokenByIndex",
      "outputs": [
        {
          "internalType": "uint256",
          "name": "",
          "type": "uint256"
        }
      ],
      "stateMutability": "view",
      "type": "function"
    },
    {
      "inputs": [
        {
          "internalType": "address",
          "name": "owner",
          "type": "address"
        },
        {
          "internalType": "uint256",
          "name": "index",
          "type": "uint256"
        }
      ],
      "name": "tokenOfOwnerByIndex",
      "outputs": [
        {
          "internalType": "uint256",
          "name": "",
          "type": "uint256"
        }
      ],
      "stateMutability": "view",
      "type": "function"
    },
    {
      "inputs": [
        {
          "internalType": "uint256",
          "name": "tokenId",
          "type": "uint256"
        }
      ],
      "name": "tokenURI",
      "outputs": [
        {
          "internalType": "string",
          "name": "",
          "type": "string"
        }
      ],
      "stateMutability": "view",
      "type": "function"
    },
    {
      "inputs": [],
      "name": "totalSupply",
      "outputs": [
        {
          "internalType": "uint256",
          "name": "",
          "type": "uint256"
        }
      ],
      "stateMutability": "view",
      "type": "function"
    },
    {
      "inputs": [
        {
          "internalType": "address",
          "name": "from",
          "type": "address"
        },
        {
          "internalType": "address",
          "name": "to",
          "type": "address"
        },
        {
          "internalType": "uint256",
          "name": "tokenId",
          "type": "uint256"
        }
      ],
      "name": "transferFrom",
      "outputs": [],
      "stateMutability": "nonpayable",
      "type": "function"
    },
    {
      "inputs": [
        {
          "internalType": "address",
          "name": "staker",
          "type": "address"
        },
        {
          "internalType": "uint256",
          "name": "tier",
          "type": "uint256"
        }
      ],
      "name": "mint",
      "outputs": [],
      "stateMutability": "nonpayable",
      "type": "function"
    },
    {
      "inputs": [
        {
          "internalType": "uint256",
          "name": "_id",
          "type": "uint256"
        }
      ],
      "name": "getRewardType",
      "outputs": [
        {
          "internalType": "string",
          "name": "",
          "type": "string"
        }
      ],
      "stateMutability": "view",
      "type": "function"
    }
  ],
  "bytecode": "0x60806040526000600b553480156200001657600080fd5b50604080518082018252601081526f159e589948151a595c8814995dd85c9960821b60208083019190915282518084019093526006835265149155d0549160d21b90830152906200006e6301ffc9a760e01b620000d8565b8151620000839060069060208501906200015d565b508051620000999060079060208401906200015d565b50620000ac6380ac58cd60e01b620000d8565b620000be635b5e139f60e01b620000d8565b620000d063780e9d6360e01b620000d8565b5050620001f9565b6001600160e01b0319808216141562000138576040805162461bcd60e51b815260206004820152601c60248201527f4552433136353a20696e76616c696420696e7465726661636520696400000000604482015290519081900360640190fd5b6001600160e01b0319166000908152602081905260409020805460ff19166001179055565b828054600181600116156101000203166002900490600052602060002090601f016020900481019282601f10620001a057805160ff1916838001178555620001d0565b82800160010185558215620001d0579182015b82811115620001d0578251825591602001919060010190620001b3565b50620001de929150620001e2565b5090565b5b80821115620001de5760008155600101620001e3565b611c0180620002096000396000f3fe608060405234801561001057600080fd5b50600436106101215760003560e01c80634f6ccce7116100ad578063a22cb46511610071578063a22cb46514610393578063b88d4fde146103c1578063c87b56dd14610487578063e985e9c5146104a4578063f2577e2d146104d257610121565b80634f6ccce7146103235780636352211e146103405780636c0360eb1461035d57806370a082311461036557806395d89b411461038b57610121565b806318160ddd116100f457806318160ddd1461024557806323b872dd1461025f5780632f745c591461029557806340c10f19146102c157806342842e0e146102ed57610121565b806301ffc9a71461012657806306fdde0314610161578063081812fc146101de578063095ea7b314610217575b600080fd5b61014d6004803603602081101561013c57600080fd5b50356001600160e01b0319166104ef565b604080519115158252519081900360200190f35b610169610512565b6040805160208082528351818301528351919283929083019185019080838360005b838110156101a357818101518382015260200161018b565b50505050905090810190601f1680156101d05780820380516001836020036101000a031916815260200191505b509250505060405180910390f35b6101fb600480360360208110156101f457600080fd5b50356105a8565b604080516001600160a01b039092168252519081900360200190f35b6102436004803603604081101561022d57600080fd5b506001600160a01b03813516906020013561060a565b005b61024d6106e5565b60408051918252519081900360200190f35b6102436004803603606081101561027557600080fd5b506001600160a01b038135811691602081013590911690604001356106f6565b61024d600480360360408110156102ab57600080fd5b506001600160a01b03813516906020013561074d565b610243600480360360408110156102d757600080fd5b506001600160a01b038135169060200135610778565b6102436004803603606081101561030357600080fd5b506001600160a01b0381358116916020810135909116906040013561079e565b61024d6004803603602081101561033957600080fd5b50356107b9565b6101fb6004803603602081101561035657600080fd5b50356107cf565b6101696107f7565b61024d6004803603602081101561037b57600080fd5b50356001600160a01b0316610858565b6101696108c0565b610243600480360360408110156103a957600080fd5b506001600160a01b0381351690602001351515610921565b610243600480360360808110156103d757600080fd5b6001600160a01b0382358116926020810135909116916040820135919081019060808101606082013564010000000081111561041257600080fd5b82018360208201111561042457600080fd5b8035906020019184600183028401116401000000008311171561044657600080fd5b91908080601f016020809104026020016040519081016040528093929190818152602001838380828437600092019190915250929550610a26945050505050565b6101696004803603602081101561049d57600080fd5b5035610a84565b61014d600480360360408110156104ba57600080fd5b506001600160a01b0381358116916020013516610d2b565b610169600480360360208110156104e857600080fd5b5035610d59565b6001600160e01b0319811660009081526020819052604090205460ff165b919050565b60068054604080516020601f600260001961010060018816150201909516949094049384018190048102820181019092528281526060939092909183018282801561059e5780601f106105735761010080835404028352916020019161059e565b820191906000526020600020905b81548152906001019060200180831161058157829003601f168201915b5050505050905090565b60006105b382610df8565b6105ee5760405162461bcd60e51b815260040180806020018281038252602c815260200180611af6602c913960400191505060405180910390fd5b506000908152600460205260409020546001600160a01b031690565b6000610615826107cf565b9050806001600160a01b0316836001600160a01b031614156106685760405162461bcd60e51b8152600401808060200182810382526021815260200180611b7a6021913960400191505060405180910390fd5b806001600160a01b031661067a610e05565b6001600160a01b0316148061069b575061069b81610696610e05565b610d2b565b6106d65760405162461bcd60e51b8152600401808060200182810382526038815260200180611a496038913960400191505060405180910390fd5b6106e08383610e09565b505050565b60006106f16002610e84565b905090565b610707610701610e05565b82610e8f565b6107425760405162461bcd60e51b8152600401808060200182810382526031815260200180611b9b6031913960400191505060405180910390fd5b6106e0838383610f33565b6001600160a01b038216600090815260016020526040812061076f908361107f565b90505b92915050565b600b8054600101908190556000818152600a602052604090208290556106e0838261108b565b6106e083838360405180602001604052806000815250610a26565b6000806107c76002846111b9565b509392505050565b600061077282604051806060016040528060298152602001611aab60299139600291906111d5565b60098054604080516020601f600260001961010060018816150201909516949094049384018190048102820181019092528281526060939092909183018282801561059e5780601f106105735761010080835404028352916020019161059e565b60006001600160a01b03821661089f5760405162461bcd60e51b815260040180806020018281038252602a815260200180611a81602a913960400191505060405180910390fd5b6001600160a01b038216600090815260016020526040902061077290610e84565b60078054604080516020601f600260001961010060018816150201909516949094049384018190048102820181019092528281526060939092909183018282801561059e5780601f106105735761010080835404028352916020019161059e565b610929610e05565b6001600160a01b0316826001600160a01b0316141561098f576040805162461bcd60e51b815260206004820152601960248201527f4552433732313a20617070726f766520746f2063616c6c657200000000000000604482015290519081900360640190fd5b806005600061099c610e05565b6001600160a01b03908116825260208083019390935260409182016000908120918716808252919093529120805460ff1916921515929092179091556109e0610e05565b6001600160a01b03167f17307eab39ab6107e8899845ad3d59bd9653f200f220920489ca2b5937696c318360405180821515815260200191505060405180910390a35050565b610a37610a31610e05565b83610e8f565b610a725760405162461bcd60e51b8152600401808060200182810382526031815260200180611b9b6031913960400191505060405180910390fd5b610a7e848484846111ec565b50505050565b6060610a8f82610df8565b610aca5760405162461bcd60e51b815260040180806020018281038252602f815260200180611b4b602f913960400191505060405180910390fd5b60008281526008602090815260409182902080548351601f6002600019610100600186161502019093169290920491820184900484028101840190945280845260609392830182828015610b5f5780601f10610b3457610100808354040283529160200191610b5f565b820191906000526020600020905b815481529060010190602001808311610b4257829003601f168201915b505060095493945050505060026000196101006001841615020190911604610b8857905061050d565b805115610c59576009816040516020018083805460018160011615610100020316600290048015610bf05780601f10610bce576101008083540402835291820191610bf0565b820191906000526020600020905b815481529060010190602001808311610bdc575b5050825160208401908083835b60208310610c1c5780518252601f199092019160209182019101610bfd565b6001836020036101000a0380198251168184511680821785525050505050509050019250505060405160208183030381529060405291505061050d565b6009610c648461123e565b6040516020018083805460018160011615610100020316600290048015610cc25780601f10610ca0576101008083540402835291820191610cc2565b820191906000526020600020905b815481529060010190602001808311610cae575b5050825160208401908083835b60208310610cee5780518252601f199092019160209182019101610ccf565b6001836020036101000a03801982511681845116808217855250505050505090500192505050604051602081830303815290604052915050919050565b6001600160a01b03918216600090815260056020908152604080832093909416825291909152205460ff1690565b6000818152600a60205260409020546060906001811415610d9857505060408051808201909152600681526539b4b63b32b960d11b602082015261050d565b8060021415610dc357505060408051808201909152600481526319dbdb1960e21b602082015261050d565b8060031415610df2575050604080518082019091526008815267706c6174696e756d60c01b602082015261050d565b50919050565b6000610772600283611319565b3390565b6000818152600460205260409020805473ffffffffffffffffffffffffffffffffffffffff19166001600160a01b0384169081179091558190610e4b826107cf565b6001600160a01b03167f8c5be1e5ebec7d5bd14f71427d1e84f3dd0314c0f7b2291e5b200ac8c7c3b92560405160405180910390a45050565b600061077282611325565b6000610e9a82610df8565b610ed55760405162461bcd60e51b815260040180806020018281038252602c815260200180611a1d602c913960400191505060405180910390fd5b6000610ee0836107cf565b9050806001600160a01b0316846001600160a01b03161480610f1b5750836001600160a01b0316610f10846105a8565b6001600160a01b0316145b80610f2b5750610f2b8185610d2b565b949350505050565b826001600160a01b0316610f46826107cf565b6001600160a01b031614610f8b5760405162461bcd60e51b8152600401808060200182810382526029815260200180611b226029913960400191505060405180910390fd5b6001600160a01b038216610fd05760405162461bcd60e51b81526004018080602001828103825260248152602001806119f96024913960400191505060405180910390fd5b610fdb8383836106e0565b610fe6600082610e09565b6001600160a01b03831660009081526001602052604090206110089082611329565b506001600160a01b038216600090815260016020526040902061102b9082611335565b5061103860028284611341565b5080826001600160a01b0316846001600160a01b03167fddf252ad1be2c89b69c2b068fc378daa952ba7f163c4a11628f55a4df523b3ef60405160405180910390a4505050565b600061076f8383611357565b6001600160a01b0382166110e6576040805162461bcd60e51b815260206004820181905260248201527f4552433732313a206d696e7420746f20746865207a65726f2061646472657373604482015290519081900360640190fd5b6110ef81610df8565b15611141576040805162461bcd60e51b815260206004820152601c60248201527f4552433732313a20746f6b656e20616c7265616479206d696e74656400000000604482015290519081900360640190fd5b61114d600083836106e0565b6001600160a01b038216600090815260016020526040902061116f9082611335565b5061117c60028284611341565b5060405181906001600160a01b038416906000907fddf252ad1be2c89b69c2b068fc378daa952ba7f163c4a11628f55a4df523b3ef908290a45050565b60008080806111c886866113bb565b9097909650945050505050565b60006111e2848484611436565b90505b9392505050565b6111f7848484610f33565b61120384848484611500565b610a7e5760405162461bcd60e51b81526004018080602001828103825260328152602001806119c76032913960400191505060405180910390fd5b60608161126357506040805180820190915260018152600360fc1b602082015261050d565b8160005b811561127b57600101600a82049150611267565b60608167ffffffffffffffff8111801561129457600080fd5b506040519080825280601f01601f1916602001820160405280156112bf576020820181803683370190505b50859350905060001982015b831561131057600a840660300160f81b828280600190039350815181106112ee57fe5b60200101906001600160f81b031916908160001a905350600a840493506112cb565b50949350505050565b600061076f8383611668565b5490565b600061076f8383611680565b600061076f8383611746565b60006111e284846001600160a01b038516611790565b815460009082106113995760405162461bcd60e51b81526004018080602001828103825260228152602001806119a56022913960400191505060405180910390fd5b8260000182815481106113a857fe5b9060005260206000200154905092915050565b8154600090819083106113ff5760405162461bcd60e51b8152600401808060200182810382526022815260200180611ad46022913960400191505060405180910390fd5b600084600001848154811061141057fe5b906000526020600020906002020190508060000154816001015492509250509250929050565b600082815260018401602052604081205482816114d15760405162461bcd60e51b81526004018080602001828103825283818151815260200191508051906020019080838360005b8381101561149657818101518382015260200161147e565b50505050905090810190601f1680156114c35780820380516001836020036101000a031916815260200191505b509250505060405180910390fd5b508460000160018203815481106114e457fe5b9060005260206000209060020201600101549150509392505050565b6000611514846001600160a01b0316611827565b61152057506001610f2b565b606061162e630a85bd0160e11b611535610e05565b88878760405160240180856001600160a01b03168152602001846001600160a01b0316815260200183815260200180602001828103825283818151815260200191508051906020019080838360005b8381101561159c578181015183820152602001611584565b50505050905090810190601f1680156115c95780820380516001836020036101000a031916815260200191505b5095505050505050604051602081830303815290604052906001600160e01b0319166020820180516001600160e01b0383818316178352505050506040518060600160405280603281526020016119c7603291396001600160a01b038816919061182d565b9050600081806020019051602081101561164757600080fd5b50516001600160e01b031916630a85bd0160e11b1492505050949350505050565b60009081526001919091016020526040902054151590565b6000818152600183016020526040812054801561173c57835460001980830191908101906000908790839081106116b357fe5b90600052602060002001549050808760000184815481106116d057fe5b60009182526020808320909101929092558281526001898101909252604090209084019055865487908061170057fe5b60019003818190600052602060002001600090559055866001016000878152602001908152602001600020600090556001945050505050610772565b6000915050610772565b60006117528383611668565b61178857508154600181810184556000848152602080822090930184905584548482528286019093526040902091909155610772565b506000610772565b6000828152600184016020526040812054806117f55750506040805180820182528381526020808201848152865460018181018955600089815284812095516002909302909501918255915190820155865486845281880190925292909120556111e5565b8285600001600183038154811061180857fe5b90600052602060002090600202016001018190555060009150506111e5565b3b151590565b60606111e28484600085606061184285611827565b611893576040805162461bcd60e51b815260206004820152601d60248201527f416464726573733a2063616c6c20746f206e6f6e2d636f6e7472616374000000604482015290519081900360640190fd5b60006060866001600160a01b031685876040518082805190602001908083835b602083106118d25780518252601f1990920191602091820191016118b3565b6001836020036101000a03801982511681845116808217855250505050505090500191505060006040518083038185875af1925050503d8060008114611934576040519150601f19603f3d011682016040523d82523d6000602084013e611939565b606091505b5091509150811561194d579150610f2b9050565b80511561195d5780518082602001fd5b60405162461bcd60e51b815260206004820181815286516024840152865187939192839260440191908501908083836000831561149657818101518382015260200161147e56fe456e756d657261626c655365743a20696e646578206f7574206f6620626f756e64734552433732313a207472616e7366657220746f206e6f6e20455243373231526563656976657220696d706c656d656e7465724552433732313a207472616e7366657220746f20746865207a65726f20616464726573734552433732313a206f70657261746f7220717565727920666f72206e6f6e6578697374656e7420746f6b656e4552433732313a20617070726f76652063616c6c6572206973206e6f74206f776e6572206e6f7220617070726f76656420666f7220616c6c4552433732313a2062616c616e636520717565727920666f7220746865207a65726f20616464726573734552433732313a206f776e657220717565727920666f72206e6f6e6578697374656e7420746f6b656e456e756d657261626c654d61703a20696e646578206f7574206f6620626f756e64734552433732313a20617070726f76656420717565727920666f72206e6f6e6578697374656e7420746f6b656e4552433732313a207472616e73666572206f6620746f6b656e2074686174206973206e6f74206f776e4552433732314d657461646174613a2055524920717565727920666f72206e6f6e6578697374656e7420746f6b656e4552433732313a20617070726f76616c20746f2063757272656e74206f776e65724552433732313a207472616e736665722063616c6c6572206973206e6f74206f776e6572206e6f7220617070726f766564a2646970667358221220d063ad0aaae5993bf243feb997573c9b0fd214587b177b53914182d2c90cd6ca64736f6c634300060c0033",
  "immutableReferences": {},
  "source": "pragma solidity ^0.6.0;\n\nimport \"node_modules/@openzeppelin/contracts/token/ERC721/ERC721.sol\";\n\ncontract TierReward is ERC721 {\n    constructor() public ERC721(\"Vybe Tier Reward\", \"REWARD\") {}\n\n    mapping(uint256 => uint256) private _type;\n\n    uint256 counter = 0;\n\n    function mint(address staker, uint256 tier) public {\n        counter = counter + 1;\n        uint256 _id = counter;\n\n        _type[_id] = tier;\n\n        _mint(staker, _id);\n    }\n\n    function burn(uint256 _id) private {\n        _burn(_id);\n    }\n\n    function getRewardType(uint256 _id) public view returns (string memory) {\n        uint256 tier = _type[_id];\n\n        if (tier == 1) {\n            return \"silver\";\n        } else if (tier == 2) {\n            return \"gold\";\n        } else if (tier == 3) {\n            return \"platinum\";\n        }\n    }\n}\n// SPDX-License-Identifier: MIT\n",
  "sourcePath": "/Users/nanoissuperior/vybe/contracts/TierReward.sol",
  "compiler": {
    "name": "solc",
    "version": "0.6.12+commit.27d51765.Emscripten.clang"
  },
  "schemaVersion": "3.2.4",
  "updatedAt": "2020-11-09T15:57:02.010Z",
  "networkType": "ethereum",
  "devdoc": {
    "kind": "dev",
    "methods": {
      "approve(address,uint256)": {
        "details": "See {IERC721-approve}."
      },
      "balanceOf(address)": {
        "details": "See {IERC721-balanceOf}."
      },
      "baseURI()": {
        "details": "Returns the base URI set via {_setBaseURI}. This will be automatically added as a prefix in {tokenURI} to each token's URI, or to the token ID if no specific URI is set for that token ID."
      },
      "getApproved(uint256)": {
        "details": "See {IERC721-getApproved}."
      },
      "isApprovedForAll(address,address)": {
        "details": "See {IERC721-isApprovedForAll}."
      },
      "name()": {
        "details": "See {IERC721Metadata-name}."
      },
      "ownerOf(uint256)": {
        "details": "See {IERC721-ownerOf}."
      },
      "safeTransferFrom(address,address,uint256)": {
        "details": "See {IERC721-safeTransferFrom}."
      },
      "safeTransferFrom(address,address,uint256,bytes)": {
        "details": "See {IERC721-safeTransferFrom}."
      },
      "setApprovalForAll(address,bool)": {
        "details": "See {IERC721-setApprovalForAll}."
      },
      "supportsInterface(bytes4)": {
        "details": "See {IERC165-supportsInterface}. Time complexity O(1), guaranteed to always use less than 30 000 gas."
      },
      "symbol()": {
        "details": "See {IERC721Metadata-symbol}."
      },
      "tokenByIndex(uint256)": {
        "details": "See {IERC721Enumerable-tokenByIndex}."
      },
      "tokenOfOwnerByIndex(address,uint256)": {
        "details": "See {IERC721Enumerable-tokenOfOwnerByIndex}."
      },
      "tokenURI(uint256)": {
        "details": "See {IERC721Metadata-tokenURI}."
      },
      "totalSupply()": {
        "details": "See {IERC721Enumerable-totalSupply}."
      },
      "transferFrom(address,address,uint256)": {
        "details": "See {IERC721-transferFrom}."
      }
    },
    "version": 1
  },
  "userdoc": {
    "kind": "user",
    "methods": {},
    "version": 1
  }
}