{
  "contractName": "TierReward",
  "abi": [
    {
      "inputs": [
        {
          "internalType": "address",
          "name": "vybe",
          "type": "address"
        }
      ],
      "stateMutability": "nonpayable",
      "type": "constructor"
    },
    {
      "anonymous": false,
      "inputs": [
        {
          "indexed": true,
          "internalType": "address",
          "name": "owner",
          "type": "address"
        },
        {
          "indexed": true,
          "internalType": "address",
          "name": "approved",
          "type": "address"
        },
        {
          "indexed": true,
          "internalType": "uint256",
          "name": "tokenId",
          "type": "uint256"
        }
      ],
      "name": "Approval",
      "type": "event"
    },
    {
      "anonymous": false,
      "inputs": [
        {
          "indexed": true,
          "internalType": "address",
          "name": "owner",
          "type": "address"
        },
        {
          "indexed": true,
          "internalType": "address",
          "name": "operator",
          "type": "address"
        },
        {
          "indexed": false,
          "internalType": "bool",
          "name": "approved",
          "type": "bool"
        }
      ],
      "name": "ApprovalForAll",
      "type": "event"
    },
    {
      "anonymous": false,
      "inputs": [
        {
          "indexed": true,
          "internalType": "address",
          "name": "from",
          "type": "address"
        },
        {
          "indexed": true,
          "internalType": "address",
          "name": "to",
          "type": "address"
        },
        {
          "indexed": true,
          "internalType": "uint256",
          "name": "tokenId",
          "type": "uint256"
        }
      ],
      "name": "Transfer",
      "type": "event"
    },
    {
      "inputs": [
        {
          "internalType": "address",
          "name": "to",
          "type": "address"
        },
        {
          "internalType": "uint256",
          "name": "tokenId",
          "type": "uint256"
        }
      ],
      "name": "approve",
      "outputs": [],
      "stateMutability": "nonpayable",
      "type": "function"
    },
    {
      "inputs": [
        {
          "internalType": "address",
          "name": "owner",
          "type": "address"
        }
      ],
      "name": "balanceOf",
      "outputs": [
        {
          "internalType": "uint256",
          "name": "",
          "type": "uint256"
        }
      ],
      "stateMutability": "view",
      "type": "function"
    },
    {
      "inputs": [],
      "name": "baseURI",
      "outputs": [
        {
          "internalType": "string",
          "name": "",
          "type": "string"
        }
      ],
      "stateMutability": "view",
      "type": "function"
    },
    {
      "inputs": [
        {
          "internalType": "uint256",
          "name": "tokenId",
          "type": "uint256"
        }
      ],
      "name": "getApproved",
      "outputs": [
        {
          "internalType": "address",
          "name": "",
          "type": "address"
        }
      ],
      "stateMutability": "view",
      "type": "function"
    },
    {
      "inputs": [
        {
          "internalType": "address",
          "name": "owner",
          "type": "address"
        },
        {
          "internalType": "address",
          "name": "operator",
          "type": "address"
        }
      ],
      "name": "isApprovedForAll",
      "outputs": [
        {
          "internalType": "bool",
          "name": "",
          "type": "bool"
        }
      ],
      "stateMutability": "view",
      "type": "function"
    },
    {
      "inputs": [],
      "name": "name",
      "outputs": [
        {
          "internalType": "string",
          "name": "",
          "type": "string"
        }
      ],
      "stateMutability": "view",
      "type": "function"
    },
    {
      "inputs": [
        {
          "internalType": "uint256",
          "name": "tokenId",
          "type": "uint256"
        }
      ],
      "name": "ownerOf",
      "outputs": [
        {
          "internalType": "address",
          "name": "",
          "type": "address"
        }
      ],
      "stateMutability": "view",
      "type": "function"
    },
    {
      "inputs": [
        {
          "internalType": "address",
          "name": "from",
          "type": "address"
        },
        {
          "internalType": "address",
          "name": "to",
          "type": "address"
        },
        {
          "internalType": "uint256",
          "name": "tokenId",
          "type": "uint256"
        }
      ],
      "name": "safeTransferFrom",
      "outputs": [],
      "stateMutability": "nonpayable",
      "type": "function"
    },
    {
      "inputs": [
        {
          "internalType": "address",
          "name": "from",
          "type": "address"
        },
        {
          "internalType": "address",
          "name": "to",
          "type": "address"
        },
        {
          "internalType": "uint256",
          "name": "tokenId",
          "type": "uint256"
        },
        {
          "internalType": "bytes",
          "name": "_data",
          "type": "bytes"
        }
      ],
      "name": "safeTransferFrom",
      "outputs": [],
      "stateMutability": "nonpayable",
      "type": "function"
    },
    {
      "inputs": [
        {
          "internalType": "address",
          "name": "operator",
          "type": "address"
        },
        {
          "internalType": "bool",
          "name": "approved",
          "type": "bool"
        }
      ],
      "name": "setApprovalForAll",
      "outputs": [],
      "stateMutability": "nonpayable",
      "type": "function"
    },
    {
      "inputs": [
        {
          "internalType": "bytes4",
          "name": "interfaceId",
          "type": "bytes4"
        }
      ],
      "name": "supportsInterface",
      "outputs": [
        {
          "internalType": "bool",
          "name": "",
          "type": "bool"
        }
      ],
      "stateMutability": "view",
      "type": "function"
    },
    {
      "inputs": [],
      "name": "symbol",
      "outputs": [
        {
          "internalType": "string",
          "name": "",
          "type": "string"
        }
      ],
      "stateMutability": "view",
      "type": "function"
    },
    {
      "inputs": [
        {
          "internalType": "uint256",
          "name": "index",
          "type": "uint256"
        }
      ],
      "name": "tokenByIndex",
      "outputs": [
        {
          "internalType": "uint256",
          "name": "",
          "type": "uint256"
        }
      ],
      "stateMutability": "view",
      "type": "function"
    },
    {
      "inputs": [
        {
          "internalType": "address",
          "name": "owner",
          "type": "address"
        },
        {
          "internalType": "uint256",
          "name": "index",
          "type": "uint256"
        }
      ],
      "name": "tokenOfOwnerByIndex",
      "outputs": [
        {
          "internalType": "uint256",
          "name": "",
          "type": "uint256"
        }
      ],
      "stateMutability": "view",
      "type": "function"
    },
    {
      "inputs": [
        {
          "internalType": "uint256",
          "name": "tokenId",
          "type": "uint256"
        }
      ],
      "name": "tokenURI",
      "outputs": [
        {
          "internalType": "string",
          "name": "",
          "type": "string"
        }
      ],
      "stateMutability": "view",
      "type": "function"
    },
    {
      "inputs": [],
      "name": "totalSupply",
      "outputs": [
        {
          "internalType": "uint256",
          "name": "",
          "type": "uint256"
        }
      ],
      "stateMutability": "view",
      "type": "function"
    },
    {
      "inputs": [
        {
          "internalType": "address",
          "name": "from",
          "type": "address"
        },
        {
          "internalType": "address",
          "name": "to",
          "type": "address"
        },
        {
          "internalType": "uint256",
          "name": "tokenId",
          "type": "uint256"
        }
      ],
      "name": "transferFrom",
      "outputs": [],
      "stateMutability": "nonpayable",
      "type": "function"
    },
    {
      "inputs": [
        {
          "internalType": "string",
          "name": "_type",
          "type": "string"
        }
      ],
      "name": "mint",
      "outputs": [],
      "stateMutability": "nonpayable",
      "type": "function"
    }
  ],
  "bytecode": "0x60806040523480156200001157600080fd5b5060405162001c8938038062001c89833981810160405260208110156200003757600080fd5b5051604080518082018252600a815269159e589954995dd85c9960b21b60208281019190915282518084019093526006835265149155d0549160d21b90830152906200008a6301ffc9a760e01b620000f5565b81516200009f9060069060208501906200017a565b508051620000b59060079060208401906200017a565b50620000c86380ac58cd60e01b620000f5565b620000da635b5e139f60e01b620000f5565b620000ec63780e9d6360e01b620000f5565b50505062000216565b6001600160e01b0319808216141562000155576040805162461bcd60e51b815260206004820152601c60248201527f4552433136353a20696e76616c696420696e7465726661636520696400000000604482015290519081900360640190fd5b6001600160e01b0319166000908152602081905260409020805460ff19166001179055565b828054600181600116156101000203166002900490600052602060002090601f016020900481019282601f10620001bd57805160ff1916838001178555620001ed565b82800160010185558215620001ed579182015b82811115620001ed578251825591602001919060010190620001d0565b50620001fb929150620001ff565b5090565b5b80821115620001fb576000815560010162000200565b611a6380620002266000396000f3fe608060405234801561001057600080fd5b50600436106101165760003560e01c80636352211e116100a2578063a22cb46511610071578063a22cb4651461035c578063b88d4fde1461038a578063c87b56dd14610450578063d85d3d271461046d578063e985e9c51461051357610116565b80636352211e146103095780636c0360eb1461032657806370a082311461032e57806395d89b411461035457610116565b806318160ddd116100e957806318160ddd1461023a57806323b872dd146102545780632f745c591461028a57806342842e0e146102b65780634f6ccce7146102ec57610116565b806301ffc9a71461011b57806306fdde0314610156578063081812fc146101d3578063095ea7b31461020c575b600080fd5b6101426004803603602081101561013157600080fd5b50356001600160e01b031916610541565b604080519115158252519081900360200190f35b61015e610564565b6040805160208082528351818301528351919283929083019185019080838360005b83811015610198578181015183820152602001610180565b50505050905090810190601f1680156101c55780820380516001836020036101000a031916815260200191505b509250505060405180910390f35b6101f0600480360360208110156101e957600080fd5b50356105fa565b604080516001600160a01b039092168252519081900360200190f35b6102386004803603604081101561022257600080fd5b506001600160a01b03813516906020013561065c565b005b610242610737565b60408051918252519081900360200190f35b6102386004803603606081101561026a57600080fd5b506001600160a01b03813581169160208101359091169060400135610748565b610242600480360360408110156102a057600080fd5b506001600160a01b03813516906020013561079f565b610238600480360360608110156102cc57600080fd5b506001600160a01b038135811691602081013590911690604001356107ca565b6102426004803603602081101561030257600080fd5b50356107e5565b6101f06004803603602081101561031f57600080fd5b50356107fb565b61015e610823565b6102426004803603602081101561034457600080fd5b50356001600160a01b0316610884565b61015e6108ec565b6102386004803603604081101561037257600080fd5b506001600160a01b038135169060200135151561094d565b610238600480360360808110156103a057600080fd5b6001600160a01b038235811692602081013590911691604082013591908101906080810160608201356401000000008111156103db57600080fd5b8201836020820111156103ed57600080fd5b8035906020019184600183028401116401000000008311171561040f57600080fd5b91908080601f016020809104026020016040519081016040528093929190818152602001838380828437600092019190915250929550610a52945050505050565b61015e6004803603602081101561046657600080fd5b5035610ab0565b6102386004803603602081101561048357600080fd5b81019060208101813564010000000081111561049e57600080fd5b8201836020820111156104b057600080fd5b803590602001918460018302840111640100000000831117156104d257600080fd5b91908080601f016020809104026020016040519081016040528093929190818152602001838380828437600092019190915250929550610d57945050505050565b6101426004803603604081101561052957600080fd5b506001600160a01b0381358116916020013516610d5a565b6001600160e01b0319811660009081526020819052604090205460ff165b919050565b60068054604080516020601f60026000196101006001881615020190951694909404938401819004810282018101909252828152606093909290918301828280156105f05780601f106105c5576101008083540402835291602001916105f0565b820191906000526020600020905b8154815290600101906020018083116105d357829003601f168201915b5050505050905090565b600061060582610d88565b6106405760405162461bcd60e51b815260040180806020018281038252602c815260200180611958602c913960400191505060405180910390fd5b506000908152600460205260409020546001600160a01b031690565b6000610667826107fb565b9050806001600160a01b0316836001600160a01b031614156106ba5760405162461bcd60e51b81526004018080602001828103825260218152602001806119dc6021913960400191505060405180910390fd5b806001600160a01b03166106cc610d95565b6001600160a01b031614806106ed57506106ed816106e8610d95565b610d5a565b6107285760405162461bcd60e51b81526004018080602001828103825260388152602001806118ab6038913960400191505060405180910390fd5b6107328383610d99565b505050565b60006107436002610e14565b905090565b610759610753610d95565b82610e1f565b6107945760405162461bcd60e51b81526004018080602001828103825260318152602001806119fd6031913960400191505060405180910390fd5b610732838383610ec3565b6001600160a01b03821660009081526001602052604081206107c1908361100f565b90505b92915050565b61073283838360405180602001604052806000815250610a52565b6000806107f360028461101b565b509392505050565b60006107c48260405180606001604052806029815260200161190d6029913960029190611037565b60098054604080516020601f60026000196101006001881615020190951694909404938401819004810282018101909252828152606093909290918301828280156105f05780601f106105c5576101008083540402835291602001916105f0565b60006001600160a01b0382166108cb5760405162461bcd60e51b815260040180806020018281038252602a8152602001806118e3602a913960400191505060405180910390fd5b6001600160a01b03821660009081526001602052604090206107c490610e14565b60078054604080516020601f60026000196101006001881615020190951694909404938401819004810282018101909252828152606093909290918301828280156105f05780601f106105c5576101008083540402835291602001916105f0565b610955610d95565b6001600160a01b0316826001600160a01b031614156109bb576040805162461bcd60e51b815260206004820152601960248201527f4552433732313a20617070726f766520746f2063616c6c657200000000000000604482015290519081900360640190fd5b80600560006109c8610d95565b6001600160a01b03908116825260208083019390935260409182016000908120918716808252919093529120805460ff191692151592909217909155610a0c610d95565b6001600160a01b03167f17307eab39ab6107e8899845ad3d59bd9653f200f220920489ca2b5937696c318360405180821515815260200191505060405180910390a35050565b610a63610a5d610d95565b83610e1f565b610a9e5760405162461bcd60e51b81526004018080602001828103825260318152602001806119fd6031913960400191505060405180910390fd5b610aaa8484848461104e565b50505050565b6060610abb82610d88565b610af65760405162461bcd60e51b815260040180806020018281038252602f8152602001806119ad602f913960400191505060405180910390fd5b60008281526008602090815260409182902080548351601f6002600019610100600186161502019093169290920491820184900484028101840190945280845260609392830182828015610b8b5780601f10610b6057610100808354040283529160200191610b8b565b820191906000526020600020905b815481529060010190602001808311610b6e57829003601f168201915b505060095493945050505060026000196101006001841615020190911604610bb457905061055f565b805115610c85576009816040516020018083805460018160011615610100020316600290048015610c1c5780601f10610bfa576101008083540402835291820191610c1c565b820191906000526020600020905b815481529060010190602001808311610c08575b5050825160208401908083835b60208310610c485780518252601f199092019160209182019101610c29565b6001836020036101000a0380198251168184511680821785525050505050509050019250505060405160208183030381529060405291505061055f565b6009610c90846110a0565b6040516020018083805460018160011615610100020316600290048015610cee5780601f10610ccc576101008083540402835291820191610cee565b820191906000526020600020905b815481529060010190602001808311610cda575b5050825160208401908083835b60208310610d1a5780518252601f199092019160209182019101610cfb565b6001836020036101000a03801982511681845116808217855250505050505090500192505050604051602081830303815290604052915050919050565b50565b6001600160a01b03918216600090815260056020908152604080832093909416825291909152205460ff1690565b60006107c460028361117b565b3390565b6000818152600460205260409020805473ffffffffffffffffffffffffffffffffffffffff19166001600160a01b0384169081179091558190610ddb826107fb565b6001600160a01b03167f8c5be1e5ebec7d5bd14f71427d1e84f3dd0314c0f7b2291e5b200ac8c7c3b92560405160405180910390a45050565b60006107c482611187565b6000610e2a82610d88565b610e655760405162461bcd60e51b815260040180806020018281038252602c81526020018061187f602c913960400191505060405180910390fd5b6000610e70836107fb565b9050806001600160a01b0316846001600160a01b03161480610eab5750836001600160a01b0316610ea0846105fa565b6001600160a01b0316145b80610ebb5750610ebb8185610d5a565b949350505050565b826001600160a01b0316610ed6826107fb565b6001600160a01b031614610f1b5760405162461bcd60e51b81526004018080602001828103825260298152602001806119846029913960400191505060405180910390fd5b6001600160a01b038216610f605760405162461bcd60e51b815260040180806020018281038252602481526020018061185b6024913960400191505060405180910390fd5b610f6b838383610732565b610f76600082610d99565b6001600160a01b0383166000908152600160205260409020610f98908261118b565b506001600160a01b0382166000908152600160205260409020610fbb9082611197565b50610fc8600282846111a3565b5080826001600160a01b0316846001600160a01b03167fddf252ad1be2c89b69c2b068fc378daa952ba7f163c4a11628f55a4df523b3ef60405160405180910390a4505050565b60006107c183836111b9565b600080808061102a868661121d565b9097909650945050505050565b6000611044848484611298565b90505b9392505050565b611059848484610ec3565b61106584848484611362565b610aaa5760405162461bcd60e51b81526004018080602001828103825260328152602001806118296032913960400191505060405180910390fd5b6060816110c557506040805180820190915260018152600360fc1b602082015261055f565b8160005b81156110dd57600101600a820491506110c9565b60608167ffffffffffffffff811180156110f657600080fd5b506040519080825280601f01601f191660200182016040528015611121576020820181803683370190505b50859350905060001982015b831561117257600a840660300160f81b8282806001900393508151811061115057fe5b60200101906001600160f81b031916908160001a905350600a8404935061112d565b50949350505050565b60006107c183836114ca565b5490565b60006107c183836114e2565b60006107c183836115a8565b600061104484846001600160a01b0385166115f2565b815460009082106111fb5760405162461bcd60e51b81526004018080602001828103825260228152602001806118076022913960400191505060405180910390fd5b82600001828154811061120a57fe5b9060005260206000200154905092915050565b8154600090819083106112615760405162461bcd60e51b81526004018080602001828103825260228152602001806119366022913960400191505060405180910390fd5b600084600001848154811061127257fe5b906000526020600020906002020190508060000154816001015492509250509250929050565b600082815260018401602052604081205482816113335760405162461bcd60e51b81526004018080602001828103825283818151815260200191508051906020019080838360005b838110156112f85781810151838201526020016112e0565b50505050905090810190601f1680156113255780820380516001836020036101000a031916815260200191505b509250505060405180910390fd5b5084600001600182038154811061134657fe5b9060005260206000209060020201600101549150509392505050565b6000611376846001600160a01b0316611689565b61138257506001610ebb565b6060611490630a85bd0160e11b611397610d95565b88878760405160240180856001600160a01b03168152602001846001600160a01b0316815260200183815260200180602001828103825283818151815260200191508051906020019080838360005b838110156113fe5781810151838201526020016113e6565b50505050905090810190601f16801561142b5780820380516001836020036101000a031916815260200191505b5095505050505050604051602081830303815290604052906001600160e01b0319166020820180516001600160e01b038381831617835250505050604051806060016040528060328152602001611829603291396001600160a01b038816919061168f565b905060008180602001905160208110156114a957600080fd5b50516001600160e01b031916630a85bd0160e11b1492505050949350505050565b60009081526001919091016020526040902054151590565b6000818152600183016020526040812054801561159e578354600019808301919081019060009087908390811061151557fe5b906000526020600020015490508087600001848154811061153257fe5b60009182526020808320909101929092558281526001898101909252604090209084019055865487908061156257fe5b600190038181906000526020600020016000905590558660010160008781526020019081526020016000206000905560019450505050506107c4565b60009150506107c4565b60006115b483836114ca565b6115ea575081546001818101845560008481526020808220909301849055845484825282860190935260409020919091556107c4565b5060006107c4565b600082815260018401602052604081205480611657575050604080518082018252838152602080820184815286546001818101895560008981528481209551600290930290950191825591519082015586548684528188019092529290912055611047565b8285600001600183038154811061166a57fe5b9060005260206000209060020201600101819055506000915050611047565b3b151590565b6060611044848460008560606116a485611689565b6116f5576040805162461bcd60e51b815260206004820152601d60248201527f416464726573733a2063616c6c20746f206e6f6e2d636f6e7472616374000000604482015290519081900360640190fd5b60006060866001600160a01b031685876040518082805190602001908083835b602083106117345780518252601f199092019160209182019101611715565b6001836020036101000a03801982511681845116808217855250505050505090500191505060006040518083038185875af1925050503d8060008114611796576040519150601f19603f3d011682016040523d82523d6000602084013e61179b565b606091505b509150915081156117af579150610ebb9050565b8051156117bf5780518082602001fd5b60405162461bcd60e51b81526020600482018181528651602484015286518793919283926044019190850190808383600083156112f85781810151838201526020016112e056fe456e756d657261626c655365743a20696e646578206f7574206f6620626f756e64734552433732313a207472616e7366657220746f206e6f6e20455243373231526563656976657220696d706c656d656e7465724552433732313a207472616e7366657220746f20746865207a65726f20616464726573734552433732313a206f70657261746f7220717565727920666f72206e6f6e6578697374656e7420746f6b656e4552433732313a20617070726f76652063616c6c6572206973206e6f74206f776e6572206e6f7220617070726f76656420666f7220616c6c4552433732313a2062616c616e636520717565727920666f7220746865207a65726f20616464726573734552433732313a206f776e657220717565727920666f72206e6f6e6578697374656e7420746f6b656e456e756d657261626c654d61703a20696e646578206f7574206f6620626f756e64734552433732313a20617070726f76656420717565727920666f72206e6f6e6578697374656e7420746f6b656e4552433732313a207472616e73666572206f6620746f6b656e2074686174206973206e6f74206f776e4552433732314d657461646174613a2055524920717565727920666f72206e6f6e6578697374656e7420746f6b656e4552433732313a20617070726f76616c20746f2063757272656e74206f776e65724552433732313a207472616e736665722063616c6c6572206973206e6f74206f776e6572206e6f7220617070726f766564a264697066735822122002dadfc62fdc1079455cdab2c7626dd15971de901d278692a84ffbd561f4b8c064736f6c634300060c0033",
  "immutableReferences": {},
  "source": "pragma solidity ^0.6.0;\n\nimport \"@openzeppelin/contracts/token/ERC721/ERC721.sol\";\n\ncontract TierReward is ERC721 {\n    constructor(address vybe) public ERC721(\"VybeReward\", \"REWARD\") {}\n\n    function mint(string memory _type) public {}\n}\n// SPDX-License-Identifier: MIT\n",
  "sourcePath": "/Users/nanoissuperior/vybe/contracts/TierReward.sol",
  "compiler": {
    "name": "solc",
    "version": "0.6.12+commit.27d51765.Emscripten.clang"
  },
  "schemaVersion": "3.2.4",
  "updatedAt": "2020-11-08T17:03:02.137Z",
  "devdoc": {
    "kind": "dev",
    "methods": {
      "approve(address,uint256)": {
        "details": "See {IERC721-approve}."
      },
      "balanceOf(address)": {
        "details": "See {IERC721-balanceOf}."
      },
      "baseURI()": {
        "details": "Returns the base URI set via {_setBaseURI}. This will be automatically added as a prefix in {tokenURI} to each token's URI, or to the token ID if no specific URI is set for that token ID."
      },
      "getApproved(uint256)": {
        "details": "See {IERC721-getApproved}."
      },
      "isApprovedForAll(address,address)": {
        "details": "See {IERC721-isApprovedForAll}."
      },
      "name()": {
        "details": "See {IERC721Metadata-name}."
      },
      "ownerOf(uint256)": {
        "details": "See {IERC721-ownerOf}."
      },
      "safeTransferFrom(address,address,uint256)": {
        "details": "See {IERC721-safeTransferFrom}."
      },
      "safeTransferFrom(address,address,uint256,bytes)": {
        "details": "See {IERC721-safeTransferFrom}."
      },
      "setApprovalForAll(address,bool)": {
        "details": "See {IERC721-setApprovalForAll}."
      },
      "supportsInterface(bytes4)": {
        "details": "See {IERC165-supportsInterface}. Time complexity O(1), guaranteed to always use less than 30 000 gas."
      },
      "symbol()": {
        "details": "See {IERC721Metadata-symbol}."
      },
      "tokenByIndex(uint256)": {
        "details": "See {IERC721Enumerable-tokenByIndex}."
      },
      "tokenOfOwnerByIndex(address,uint256)": {
        "details": "See {IERC721Enumerable-tokenOfOwnerByIndex}."
      },
      "tokenURI(uint256)": {
        "details": "See {IERC721Metadata-tokenURI}."
      },
      "totalSupply()": {
        "details": "See {IERC721Enumerable-totalSupply}."
      },
      "transferFrom(address,address,uint256)": {
        "details": "See {IERC721-transferFrom}."
      }
    },
    "version": 1
  },
  "userdoc": {
    "kind": "user",
    "methods": {},
    "version": 1
  }
}