{
  "contractName": "TokenTimelock",
  "abi": [
    {
      "inputs": [],
      "stateMutability": "nonpayable",
      "type": "constructor"
    },
    {
      "inputs": [
        {
          "internalType": "address",
          "name": "newBeneficiary",
          "type": "address"
        }
      ],
      "name": "updateBeneficiary",
      "outputs": [],
      "stateMutability": "nonpayable",
      "type": "function"
    },
    {
      "inputs": [
        {
          "internalType": "uint256",
          "name": "b",
          "type": "uint256"
        }
      ],
      "name": "release",
      "outputs": [],
      "stateMutability": "nonpayable",
      "type": "function"
    }
  ],
  "bytecode": "0x6080604052600080546001600160a01b031916738875c123547bc477ec76f1ff09b4e1e787e11d3517905534801561003657600080fd5b506040805160608082018352692a5a058fc295ed000000808352635f751c00602080850182905260009486018590526001929092556002556003805460ff1990811690915584518084018652693f870857a3e0e3800000808252635f9dfa808285018190529187018690526004819055600591909155600680548316905585518085018752694a1d89bb94865ec00000808252635fc58780828601819052918801879052600781905560089190915560098054841690558651808601885281815263603c2e80818601819052908801879052600a91909155600b55600c805483169055855193840186528084526360b5788092840183905292909401839052600d91909155600e55600f805490921690915561022690819061015890396000f3fe608060405234801561001057600080fd5b50600436106100365760003560e01c80630aaffd2a1461003b57806337bdc99b14610063575b600080fd5b6100616004803603602081101561005157600080fd5b50356001600160a01b0316610080565b005b6100616004803603602081101561007957600080fd5b50356100c6565b6000546001600160a01b0316331461009757600080fd5b6000805473ffffffffffffffffffffffffffffffffffffffff19166001600160a01b0392909216919091179055565b600181600581106100d357fe5b600302016002015460ff16156100e857600080fd5b600181600581106100f557fe5b600302016001015442101561010957600080fd5b600054733a1c1d1c06be03cddc4d3332f7c20e1b37c97ce99063a9059cbb906001600160a01b03166001846005811061013e57fe5b60030201600001546040518363ffffffff1660e01b815260040180836001600160a01b0316815260200182815260200192505050602060405180830381600087803b15801561018c57600080fd5b505af11580156101a0573d6000803e3d6000fd5b505050506040513d60208110156101b657600080fd5b50516101c157600080fd5b60018082600581106101cf57fe5b6003020160020160006101000a81548160ff0219169083151502179055505056fea26469706673582212209c44b051493a80dac2d0d781118d2000dd25eccd7827860259f07d7967b73cfe64736f6c634300060c0033",
  "immutableReferences": {},
  "source": "// SPDX-License-Identifier: MIT\n/*\nThe MIT License (MIT)\n\nCopyright (c) 2016-2020 zOS Global Limited\n\nPermission is hereby granted, free of charge, to any person obtaining\na copy of this software and associated documentation files (the\n\"Software\"), to deal in the Software without restriction, including\nwithout limitation the rights to use, copy, modify, merge, publish,\ndistribute, sublicense, and/or sell copies of the Software, and to\npermit persons to whom the Software is furnished to do so, subject to\nthe following conditions:\n\nThe above copyright notice and this permission notice shall be included\nin all copies or substantial portions of the Software.\n\nTHE SOFTWARE IS PROVIDED \"AS IS\", WITHOUT WARRANTY OF ANY KIND, EXPRESS\nOR IMPLIED, INCLUDING BUT NOT LIMITED TO THE WARRANTIES OF\nMERCHANTABILITY, FITNESS FOR A PARTICULAR PURPOSE AND NONINFRINGEMENT.\nIN NO EVENT SHALL THE AUTHORS OR COPYRIGHT HOLDERS BE LIABLE FOR ANY\nCLAIM, DAMAGES OR OTHER LIABILITY, WHETHER IN AN ACTION OF CONTRACT,\nTORT OR OTHERWISE, ARISING FROM, OUT OF OR IN CONNECTION WITH THE\nSOFTWARE OR THE USE OR OTHER DEALINGS IN THE SOFTWARE.\n*/\n\npragma solidity ^0.6.0;\n\ninterface IERC20 {\n    function transfer(address recipient, uint256 amount)\n        external\n        returns (bool);\n}\n\ncontract TokenTimelock {\n    uint256 constant COIN = 10**18;\n\n    struct Batch {\n        uint256 amount;\n        uint256 time;\n        bool spent;\n    }\n\n    IERC20 constant _token = IERC20(\n        address(0x3A1c1d1c06bE03cDDC4d3332F7C20e1B37c97CE9)\n    );\n    address private _beneficiary = address(\n        0x8875c123547bc477ec76F1FF09b4E1e787E11D35\n    );\n    Batch[5] private _batches;\n\n    constructor() public {\n        // October, 2020\n        _batches[0] = Batch(200000 * COIN, 1601510400, false);\n        // November, 2020\n        _batches[1] = Batch(300000 * COIN, 1604188800, false);\n        // December, 2020\n        _batches[2] = Batch(350000 * COIN, 1606780800, false);\n        // March, 2021\n        _batches[3] = Batch(350000 * COIN, 1614556800, false);\n        // June, 2021\n        _batches[4] = Batch(300000 * COIN, 1622505600, false);\n    }\n\n    function updateBeneficiary(address newBeneficiary) external {\n        require(msg.sender == _beneficiary);\n        _beneficiary = newBeneficiary;\n    }\n\n    function release(uint256 b) external {\n        require(!_batches[b].spent);\n        require(block.timestamp >= _batches[b].time);\n        require(_token.transfer(_beneficiary, _batches[b].amount));\n        _batches[b].spent = true;\n    }\n}\n",
  "sourcePath": "/Users/nanoissuperior/vybe/contracts/TokenTimelock.sol",
  "compiler": {
    "name": "solc",
    "version": "0.6.12+commit.27d51765.Emscripten.clang"
  },
  "schemaVersion": "3.2.4",
  "updatedAt": "2020-11-07T16:41:27.871Z",
  "devdoc": {
    "kind": "dev",
    "methods": {},
    "version": 1
  },
  "userdoc": {
    "kind": "user",
    "methods": {},
    "version": 1
  }
}