{
  "contractName": "VybeLoan",
  "abi": [
    {
      "inputs": [
        {
          "internalType": "address",
          "name": "VYBE",
          "type": "address"
        },
        {
          "internalType": "address",
          "name": "vybeStake",
          "type": "address"
        }
      ],
      "stateMutability": "nonpayable",
      "type": "constructor"
    },
    {
      "anonymous": false,
      "inputs": [
        {
          "indexed": false,
          "internalType": "uint256",
          "name": "amount",
          "type": "uint256"
        },
        {
          "indexed": false,
          "internalType": "uint256",
          "name": "profit",
          "type": "uint256"
        }
      ],
      "name": "Loaned",
      "type": "event"
    },
    {
      "anonymous": false,
      "inputs": [
        {
          "indexed": true,
          "internalType": "address",
          "name": "previousOwner",
          "type": "address"
        },
        {
          "indexed": true,
          "internalType": "address",
          "name": "newOwner",
          "type": "address"
        }
      ],
      "name": "OwnershipTransferred",
      "type": "event"
    },
    {
      "inputs": [],
      "name": "owner",
      "outputs": [
        {
          "internalType": "address",
          "name": "",
          "type": "address"
        }
      ],
      "stateMutability": "view",
      "type": "function",
      "constant": true
    },
    {
      "inputs": [
        {
          "internalType": "address",
          "name": "newOwner",
          "type": "address"
        }
      ],
      "name": "transferOwnership",
      "outputs": [],
      "stateMutability": "nonpayable",
      "type": "function"
    },
    {
      "inputs": [
        {
          "internalType": "uint256",
          "name": "amount",
          "type": "uint256"
        }
      ],
      "name": "loan",
      "outputs": [],
      "stateMutability": "nonpayable",
      "type": "function"
    }
  ],
  "bytecode": "0x6080604052606460025534801561001557600080fd5b506040516106843803806106848339818101604052604081101561003857600080fd5b50805160209091015160008054610100600160a81b0319166101006001600160a01b03808516820292909217808455604051859492909104909216917f8be0079c531659141344cd1fd0a4f28419497f9722a3daafe3b4186f6b6457e0908290a35050600180546001600160a01b0319166001600160a01b03929092169190911790556105ba806100ca6000396000f3fe608060405234801561001057600080fd5b50600436106100415760003560e01c8063365a5306146100465780638da5cb5b14610065578063f2fde38b14610089575b600080fd5b6100636004803603602081101561005c57600080fd5b50356100af565b005b61006d6103f3565b604080516001600160a01b039092168252519081900360200190f35b6100636004803603602081101561009f57600080fd5b50356001600160a01b0316610407565b60005460ff16156100bf57600080fd5b6000805460ff191660011781556002546100da908390610523565b905060006100e88383610545565b6001549091506001600160a01b03166323b872dd6101046103f3565b33866040518463ffffffff1660e01b815260040180846001600160a01b03168152602001836001600160a01b031681526020018281526020019350505050602060405180830381600087803b15801561015c57600080fd5b505af1158015610170573d6000803e3d6000fd5b505050506040513d602081101561018657600080fd5b505161019157600080fd5b6040805163597ad13d60e11b815260048101859052602481018390529051339163b2f5a27a91604480830192600092919082900301818387803b1580156101d757600080fd5b505af11580156101eb573d6000803e3d6000fd5b50506001546001600160a01b031691506323b872dd90503361020b6103f3565b866040518463ffffffff1660e01b815260040180846001600160a01b03168152602001836001600160a01b031681526020018281526020019350505050602060405180830381600087803b15801561026257600080fd5b505af1158015610276573d6000803e3d6000fd5b505050506040513d602081101561028c57600080fd5b505161029757600080fd5b600154604080516323b872dd60e01b81523360048201523060248201526044810185905290516001600160a01b03909216916323b872dd916064808201926020929091908290030181600087803b1580156102f157600080fd5b505af1158015610305573d6000803e3d6000fd5b505050506040513d602081101561031b57600080fd5b505161032657600080fd5b60015460408051630852cd8d60e31b81526004810185905290516001600160a01b03909216916342966c68916024808201926020929091908290030181600087803b15801561037457600080fd5b505af1158015610388573d6000803e3d6000fd5b505050506040513d602081101561039e57600080fd5b50516103a957600080fd5b604080518481526020810184905281517f57529235d42dc1daa6e5fa9e9182c6e3a6eed1db72665e80db2167b8e10504ea929181900390910190a150506000805460ff1916905550565b60005461010090046001600160a01b031690565b60005461010090046001600160a01b0316331461046b576040805162461bcd60e51b815260206004820181905260248201527f4f776e61626c653a2063616c6c6572206973206e6f7420746865206f776e6572604482015290519081900360640190fd5b6001600160a01b0381166104b05760405162461bcd60e51b815260040180806020018281038252602681526020018061055f6026913960400191505060405180910390fd5b600080546040516001600160a01b038085169361010090930416917f8be0079c531659141344cd1fd0a4f28419497f9722a3daafe3b4186f6b6457e091a3600080546001600160a01b039092166101000274ffffffffffffffffffffffffffffffffffffffff0019909216919091179055565b600080821161053157600080fd5b600082848161053c57fe5b04949350505050565b60008282018381101561055757600080fd5b939250505056fe4f776e61626c653a206e6577206f776e657220697320746865207a65726f2061646472657373a264697066735822122056f37b6cb0a5b5ff9f51fc8c241ff017c763fc92322160e45224bf220abc7fd464736f6c634300060c0033",
  "immutableReferences": {},
  "source": "// SPDX-License-Identifier: MIT\npragma solidity ^0.6.0;\n\nimport \"./SafeMath.sol\";\nimport \"./ReentrancyGuard.sol\";\nimport \"./Ownable.sol\";\nimport \"./Vybe.sol\";\nimport \"./IVybeBorrower.sol\";\n\ncontract VybeLoan is ReentrancyGuard, Ownable {\n    using SafeMath for uint256;\n\n    Vybe private _VYBE;\n    uint256 internal _feeDivisor = 100;\n\n    event Loaned(uint256 amount, uint256 profit);\n\n    constructor(address VYBE, address vybeStake) public Ownable(vybeStake) {\n        _VYBE = Vybe(VYBE);\n    }\n\n    // loan out VYBE from the staked funds\n    function loan(uint256 amount) external noReentrancy {\n        // set a profit of 1%\n        uint256 profit = amount.div(_feeDivisor);\n        uint256 owed = amount.add(profit);\n        // transfer the funds\n        require(_VYBE.transferFrom(owner(), msg.sender, amount));\n\n        // call the loaned function\n        IVybeBorrower(msg.sender).loaned(amount, owed);\n\n        // transfer back to the staking pool\n        require(_VYBE.transferFrom(msg.sender, owner(), amount));\n        // take the profit\n        require(_VYBE.transferFrom(msg.sender, address(this), profit));\n        // burn it, distributing its value to the ecosystem\n        require(_VYBE.burn(profit));\n\n        emit Loaned(amount, profit);\n    }\n}\n",
  "sourcePath": "/Users/nanoissuperior/vybe/contracts/VybeLoan.sol",
  "compiler": {
    "name": "solc",
    "version": "0.6.12+commit.27d51765.Emscripten.clang"
  },
  "schemaVersion": "3.2.4",
  "updatedAt": "2020-11-08T17:05:40.853Z",
  "networkType": "ethereum",
  "devdoc": {
    "kind": "dev",
    "methods": {},
    "version": 1
  },
  "userdoc": {
    "kind": "user",
    "methods": {},
    "version": 1
  }
}