{
  "contractName": "VybeStake",
  "abi": [
    {
      "inputs": [
        {
          "internalType": "address",
          "name": "vybe",
          "type": "address"
        }
      ],
      "stateMutability": "nonpayable",
      "type": "constructor"
    },
    {
      "anonymous": false,
      "inputs": [
        {
          "indexed": true,
          "internalType": "address",
          "name": "melody",
          "type": "address"
        }
      ],
      "name": "MelodyAdded",
      "type": "event"
    },
    {
      "anonymous": false,
      "inputs": [
        {
          "indexed": true,
          "internalType": "address",
          "name": "melody",
          "type": "address"
        }
      ],
      "name": "MelodyRemoved",
      "type": "event"
    },
    {
      "anonymous": false,
      "inputs": [
        {
          "indexed": true,
          "internalType": "address",
          "name": "previousOwner",
          "type": "address"
        },
        {
          "indexed": true,
          "internalType": "address",
          "name": "newOwner",
          "type": "address"
        }
      ],
      "name": "OwnershipTransferred",
      "type": "event"
    },
    {
      "anonymous": false,
      "inputs": [
        {
          "indexed": true,
          "internalType": "address",
          "name": "staker",
          "type": "address"
        },
        {
          "indexed": false,
          "internalType": "uint256",
          "name": "mintage",
          "type": "uint256"
        },
        {
          "indexed": false,
          "internalType": "uint256",
          "name": "developerFund",
          "type": "uint256"
        }
      ],
      "name": "Rewards",
      "type": "event"
    },
    {
      "anonymous": false,
      "inputs": [
        {
          "indexed": true,
          "internalType": "address",
          "name": "staker",
          "type": "address"
        },
        {
          "indexed": false,
          "internalType": "uint256",
          "name": "amount",
          "type": "uint256"
        }
      ],
      "name": "StakeDecreased",
      "type": "event"
    },
    {
      "anonymous": false,
      "inputs": [
        {
          "indexed": true,
          "internalType": "address",
          "name": "staker",
          "type": "address"
        },
        {
          "indexed": false,
          "internalType": "uint256",
          "name": "amount",
          "type": "uint256"
        }
      ],
      "name": "StakeIncreased",
      "type": "event"
    },
    {
      "inputs": [],
      "name": "owner",
      "outputs": [
        {
          "internalType": "address",
          "name": "",
          "type": "address"
        }
      ],
      "stateMutability": "view",
      "type": "function"
    },
    {
      "inputs": [
        {
          "internalType": "address",
          "name": "newOwner",
          "type": "address"
        }
      ],
      "name": "transferOwnership",
      "outputs": [],
      "stateMutability": "nonpayable",
      "type": "function"
    },
    {
      "inputs": [
        {
          "internalType": "address",
          "name": "fund",
          "type": "address"
        }
      ],
      "name": "upgradeDevelopmentFund",
      "outputs": [],
      "stateMutability": "nonpayable",
      "type": "function"
    },
    {
      "inputs": [],
      "name": "vybe",
      "outputs": [
        {
          "internalType": "address",
          "name": "",
          "type": "address"
        }
      ],
      "stateMutability": "view",
      "type": "function"
    },
    {
      "inputs": [],
      "name": "totalStaked",
      "outputs": [
        {
          "internalType": "uint256",
          "name": "",
          "type": "uint256"
        }
      ],
      "stateMutability": "view",
      "type": "function"
    },
    {
      "inputs": [
        {
          "internalType": "address",
          "name": "previous",
          "type": "address"
        },
        {
          "internalType": "address[]",
          "name": "people",
          "type": "address[]"
        },
        {
          "internalType": "uint256[]",
          "name": "lastClaims",
          "type": "uint256[]"
        }
      ],
      "name": "migrate",
      "outputs": [],
      "stateMutability": "nonpayable",
      "type": "function"
    },
    {
      "inputs": [
        {
          "internalType": "address",
          "name": "staker",
          "type": "address"
        }
      ],
      "name": "staked",
      "outputs": [
        {
          "internalType": "uint256",
          "name": "",
          "type": "uint256"
        }
      ],
      "stateMutability": "view",
      "type": "function"
    },
    {
      "inputs": [
        {
          "internalType": "address",
          "name": "staker",
          "type": "address"
        }
      ],
      "name": "lastClaim",
      "outputs": [
        {
          "internalType": "uint256",
          "name": "",
          "type": "uint256"
        }
      ],
      "stateMutability": "view",
      "type": "function"
    },
    {
      "inputs": [
        {
          "internalType": "uint256",
          "name": "amount",
          "type": "uint256"
        }
      ],
      "name": "increaseStake",
      "outputs": [],
      "stateMutability": "nonpayable",
      "type": "function"
    },
    {
      "inputs": [
        {
          "internalType": "uint256",
          "name": "amount",
          "type": "uint256"
        }
      ],
      "name": "decreaseStake",
      "outputs": [],
      "stateMutability": "nonpayable",
      "type": "function"
    },
    {
      "inputs": [],
      "name": "calculateSupplyDivisor",
      "outputs": [
        {
          "internalType": "uint256",
          "name": "",
          "type": "uint256"
        }
      ],
      "stateMutability": "view",
      "type": "function"
    },
    {
      "inputs": [
        {
          "internalType": "address",
          "name": "staker",
          "type": "address"
        }
      ],
      "name": "calculateRewards",
      "outputs": [
        {
          "internalType": "uint256",
          "name": "",
          "type": "uint256"
        }
      ],
      "stateMutability": "view",
      "type": "function"
    },
    {
      "inputs": [],
      "name": "claimRewards",
      "outputs": [],
      "stateMutability": "nonpayable",
      "type": "function"
    },
    {
      "inputs": [
        {
          "internalType": "address",
          "name": "staker",
          "type": "address"
        }
      ],
      "name": "claimNFT",
      "outputs": [],
      "stateMutability": "nonpayable",
      "type": "function"
    },
    {
      "inputs": [
        {
          "internalType": "address",
          "name": "melody",
          "type": "address"
        }
      ],
      "name": "addMelody",
      "outputs": [],
      "stateMutability": "nonpayable",
      "type": "function"
    },
    {
      "inputs": [
        {
          "internalType": "address",
          "name": "melody",
          "type": "address"
        }
      ],
      "name": "removeMelody",
      "outputs": [],
      "stateMutability": "nonpayable",
      "type": "function"
    },
    {
      "inputs": [
        {
          "internalType": "address",
          "name": "owned",
          "type": "address"
        },
        {
          "internalType": "address",
          "name": "upgraded",
          "type": "address"
        }
      ],
      "name": "upgrade",
      "outputs": [],
      "stateMutability": "nonpayable",
      "type": "function"
    }
  ],
  "bytecode": "0x608060405234801561001057600080fd5b506040516113e53803806113e58339818101604052602081101561003357600080fd5b50516000805461010033818102610100600160a81b03199093169290921780845560405192939190046001600160a01b0316917f8be0079c531659141344cd1fd0a4f28419497f9722a3daafe3b4186f6b6457e0908290a350600180546001600160a01b039092166001600160a01b0319928316179055600a8054909116331790554260025561131d806100c86000396000f3fe608060405234801561001057600080fd5b506004361061010b5760003560e01c80638da5cb5b116100a2578063e8b96de111610071578063e8b96de11461027a578063eedad66b14610297578063f2397f3e146102b4578063f2fde38b146102da578063f3177079146103005761010b565b80638da5cb5b146101f857806398807d841461020057806399a88ec414610226578063d10fdb5c146102545761010b565b806364ab8675116100de57806364ab8675146101805780636b1dd7fd146101a65780636de3ac3f146101ca578063817b1cd2146101f05761010b565b80632da8913614610110578063372500ab146101385780634c885c02146101405780635c16e15e1461015a575b600080fd5b6101366004803603602081101561012657600080fd5b50356001600160a01b0316610437565b005b610136610544565b610148610696565b60408051918252519081900360200190f35b6101486004803603602081101561017057600080fd5b50356001600160a01b03166106e6565b6101486004803603602081101561019657600080fd5b50356001600160a01b0316610701565b6101ae61071c565b604080516001600160a01b039092168252519081900360200190f35b610136600480360360208110156101e057600080fd5b50356001600160a01b031661072b565b6101486107ac565b6101ae6107b2565b6101486004803603602081101561021657600080fd5b50356001600160a01b03166107c6565b6101366004803603604081101561023c57600080fd5b506001600160a01b03813581169160200135166107e1565b6101366004803603602081101561026a57600080fd5b50356001600160a01b03166108ad565b6101366004803603602081101561029057600080fd5b50356108e1565b610136600480360360208110156102ad57600080fd5b5035610a59565b610136600480360360208110156102ca57600080fd5b50356001600160a01b0316610ba9565b610136600480360360208110156102f057600080fd5b50356001600160a01b0316610cb5565b6101366004803603606081101561031657600080fd5b6001600160a01b03823516919081019060408101602082013564010000000081111561034157600080fd5b82018360208201111561035357600080fd5b8035906020019184602083028401116401000000008311171561037557600080fd5b91908080602002602001604051908101604052809392919081815260200183836020028082843760009201919091525092959493602081019350359150506401000000008111156103c557600080fd5b8201836020820111156103d757600080fd5b803590602001918460208302840111640100000000831117156103f957600080fd5b919080806020026020016040519081016040528093929190818152602001838360200280828437600092019190915250929550610dbf945050505050565b60005461010090046001600160a01b03163314610489576040805162461bcd60e51b815260206004820181905260248201526000805160206112c8833981519152604482015290519081900360640190fd5b6001546040805163095ea7b360e01b81526001600160a01b038481166004830152600060248301819052925193169263095ea7b392604480840193602093929083900390910190829087803b1580156104e157600080fd5b505af11580156104f5573d6000803e3d6000fd5b505050506040513d602081101561050b57600080fd5b50506040516001600160a01b038216907f3161d766eb7d07d5e1ceea9abc5160636a3ec586a0f95a0c0cf367af6706d0b790600090a250565b60005460ff161561055457600080fd5b6000805460ff1916600190811790915554600160a01b900460ff161561057957600080fd5b6000610584336110a3565b905060006105938260646111bb565b9050600082116105a257600080fd5b33600090815260056020908152604080832042905560049091529020546105c990836111dd565b33600090815260046020819052604080832093909355600154600a5484516340c10f1960e01b81526001600160a01b03918216938101939093526024830186905293519316926340c10f199260448084019391929182900301818387803b15801561063357600080fd5b505af1158015610647573d6000803e3d6000fd5b5050604080518581526020810185905281513394507f61953b03ced70bb23c53b5a7058e431e3db88cf84a72660faea0849b785c43bd93509081900390910190a250506000805460ff19169055565b6000806106d16106c960056106c362278d006106bd600254426111f690919063ffffffff16565b906111bb565b9061120b565b6014906111dd565b905060328111156106e0575060325b90505b90565b6001600160a01b031660009081526005602052604090205490565b600061071660136106c360146106bd866110a3565b92915050565b6001546001600160a01b031690565b60005461010090046001600160a01b0316331461077d576040805162461bcd60e51b815260206004820181905260248201526000805160206112c8833981519152604482015290519081900360640190fd5b600a805473ffffffffffffffffffffffffffffffffffffffff19166001600160a01b0392909216919091179055565b60035490565b60005461010090046001600160a01b031690565b6001600160a01b031660009081526004602052604090205490565b60005461010090046001600160a01b03163314610833576040805162461bcd60e51b815260206004820181905260248201526000805160206112c8833981519152604482015290519081900360640190fd5b6001805460ff60a01b1916600160a01b1790556040805163f2fde38b60e01b81526001600160a01b03838116600483015291519184169163f2fde38b9160248082019260009290919082900301818387803b15801561089157600080fd5b505af11580156108a5573d6000803e3d6000fd5b505050505050565b60005460ff16156108bd57600080fd5b6000805460ff191660011781556108d2611232565b50506000805460ff1916905550565b336000908152600460205260409020546108fb90826111f6565b3360009081526004602052604090205560035461091890826111f6565b6003556001546040805163a9059cbb60e01b81523360048201526024810184905290516001600160a01b039092169163a9059cbb916044808201926020929091908290030181600087803b15801561096f57600080fd5b505af1158015610983573d6000803e3d6000fd5b505050506040513d602081101561099957600080fd5b50516109a457600080fd5b60056109b181600a6111bb565b336000908152600460205260409020540282108015906109e257503360009081526008602052604090205462278d00105b15610a0c573360009081526007602090815260408083204290819055600890925290912055610a1f565b3360009081526006602052604090204290555b60408051838152905133917f700865370ffb2a65a2b0242e6a64b21ac907ed5ecd46c9cffc729c177b2b1c69919081900360200190a25050565b600154600160a01b900460ff1615610a7057600080fd5b600154604080516323b872dd60e01b81523360048201523060248201526044810184905290516001600160a01b03909216916323b872dd916064808201926020929091908290030181600087803b158015610aca57600080fd5b505af1158015610ade573d6000803e3d6000fd5b505050506040513d6020811015610af457600080fd5b5051610aff57600080fd5b600354610b0c90826111dd565b6003553360009081526005602090815260408083204290556006909152902054610b43573360009081526006602052604090204290555b33600090815260046020526040902054610b5d90826111dd565b33600081815260046020908152604091829020939093558051848152905191927f8b0ed825817a2e696c9a931715af4609fc60e1701f09c89ee7645130e937eb2d92918290030190a250565b60005461010090046001600160a01b03163314610bfb576040805162461bcd60e51b815260206004820181905260248201526000805160206112c8833981519152604482015290519081900360640190fd5b6001546040805163095ea7b360e01b81526001600160a01b03848116600483015260001960248301529151919092169163095ea7b39160448083019260209291908290030181600087803b158015610c5257600080fd5b505af1158015610c66573d6000803e3d6000fd5b505050506040513d6020811015610c7c57600080fd5b50506040516001600160a01b038216907fb87d41b5cab885fb2ce4b4c06efc62eea320378130b36c709de7d45facaa1bc890600090a250565b60005461010090046001600160a01b03163314610d07576040805162461bcd60e51b815260206004820181905260248201526000805160206112c8833981519152604482015290519081900360640190fd5b6001600160a01b038116610d4c5760405162461bcd60e51b81526004018080602001828103825260268152602001806112a26026913960400191505060405180910390fd5b600080546040516001600160a01b038085169361010090930416917f8be0079c531659141344cd1fd0a4f28419497f9722a3daafe3b4186f6b6457e091a3600080546001600160a01b039092166101000274ffffffffffffffffffffffffffffffffffffffff0019909216919091179055565b600154600160a81b900460ff1615610dd657600080fd5b8051825114610de457600080fd5b60005b8251811015610f7a576000846001600160a01b03166398807d84858481518110610e0d57fe5b60200260200101516040518263ffffffff1660e01b815260040180826001600160a01b0316815260200191505060206040518083038186803b158015610e5257600080fd5b505afa158015610e66573d6000803e3d6000fd5b505050506040513d6020811015610e7c57600080fd5b505184519091508190600490600090879086908110610e9757fe5b6020908102919091018101516001600160a01b0316825281019190915260400160002055600354610ec890826111dd565b6003558251839083908110610ed957fe5b602002602001015160056000868581518110610ef157fe5b60200260200101516001600160a01b03166001600160a01b0316815260200190815260200160002081905550838281518110610f2957fe5b60200260200101516001600160a01b03167f8b0ed825817a2e696c9a931715af4609fc60e1701f09c89ee7645130e937eb2d826040518082815260200191505060405180910390a250600101610de7565b50600154604080516370a0823160e01b81526001600160a01b038681166004830152915191909216916323b872dd918691309185916370a08231916024808301926020929190829003018186803b158015610fd457600080fd5b505afa158015610fe8573d6000803e3d6000fd5b505050506040513d6020811015610ffe57600080fd5b5051604080516001600160e01b031960e087901b1681526001600160a01b0394851660048201529290931660248301526044820152905160648083019260209291908290030181600087803b15801561105657600080fd5b505af115801561106a573d6000803e3d6000fd5b505050506040513d602081101561108057600080fd5b505161108b57600080fd5b50506001805460ff60a81b1916600160a81b17905550565b6001600160a01b038116600090815260066020526040812054819081906110cb9042906111f6565b6001600160a01b038516600090815260076020526040812054919250906110f39042906111f6565b905061110362278d00600661120b565b8211801561111d575061111a62278d00600661120b565b81115b1561112b57600a9250611193565b61113962278d00600361120b565b82118015611153575061115062278d00600361120b565b81115b156111615760089250611193565b61116f62278d00600161120b565b82118015611189575061118662278d00600161120b565b81115b1561119357600592505b60006111a084600a6111bb565b33600090815260046020526040902054029695505050505050565b60008082116111c957600080fd5b60008284816111d457fe5b04949350505050565b6000828201838110156111ef57600080fd5b9392505050565b60008282111561120557600080fd5b50900390565b60008261121a57506000610716565b8282028284828161122757fe5b04146111ef57600080fd5b33600090815260056020526040812054819061124f9042906111f6565b905061125f62278d00600661120b565b81118015611288575061127662278d00600161120b565b33600090815260096020526040902054115b156112975760019150506106e3565b60009150506106e356fe4f776e61626c653a206e6577206f776e657220697320746865207a65726f20616464726573734f776e61626c653a2063616c6c6572206973206e6f7420746865206f776e6572a2646970667358221220f7dc13aed28da6a1ef9a911421b2c5f1372ba62a0cfa6a973389e73b9845169764736f6c634300060c0033",
  "immutableReferences": {},
  "source": "// SPDX-License-Identifier: MIT\npragma solidity ^0.6.0;\n\nimport \"./SafeMath.sol\";\nimport \"./IOwnershipTransferrable.sol\";\nimport \"./ReentrancyGuard.sol\";\nimport \"./Vybe.sol\";\n\ncontract VybeStake is ReentrancyGuard, Ownable {\n    using SafeMath for uint256;\n\n    uint256 constant UINT256_MAX = ~uint256(0);\n    uint256 constant MONTH = 30 days;\n\n    Vybe private _VYBE;\n\n    bool private _dated;\n    bool private _migrated;\n    uint256 _deployedAt;\n\n    uint256 _totalStaked;\n    mapping(address => uint256) private _staked;\n    mapping(address => uint256) private _lastClaim;\n    mapping(address => uint256) private _firstDeposit;\n    mapping(address => uint256) private _lastSignificantDecrease;\n    mapping(address => uint256) private _lastDecrease;\n    mapping(address => uint256) private _lastNFTClaim;\n    address private _developerFund;\n\n    event StakeIncreased(address indexed staker, uint256 amount);\n    event StakeDecreased(address indexed staker, uint256 amount);\n    event Rewards(\n        address indexed staker,\n        uint256 mintage,\n        uint256 developerFund\n    );\n    event MelodyAdded(address indexed melody);\n    event MelodyRemoved(address indexed melody);\n\n    constructor(address vybe) public Ownable(msg.sender) {\n        _VYBE = Vybe(vybe);\n        _developerFund = msg.sender;\n        _deployedAt = block.timestamp;\n    }\n\n    function upgradeDevelopmentFund(address fund) external onlyOwner {\n        _developerFund = fund;\n    }\n\n    function vybe() external view returns (address) {\n        return address(_VYBE);\n    }\n\n    function totalStaked() external view returns (uint256) {\n        return _totalStaked;\n    }\n\n    // To do\n    // function viewAllStakers() external view returns (address[] memory) {}\n\n    function migrate(\n        address previous,\n        address[] memory people,\n        uint256[] memory lastClaims\n    ) external {\n        require(!_migrated);\n        require(people.length == lastClaims.length);\n        for (uint256 i = 0; i < people.length; i++) {\n            uint256 staked = VybeStake(previous).staked(people[i]);\n            _staked[people[i]] = staked;\n            _totalStaked = _totalStaked.add(staked);\n            _lastClaim[people[i]] = lastClaims[i];\n            emit StakeIncreased(people[i], staked);\n        }\n        require(\n            _VYBE.transferFrom(\n                previous,\n                address(this),\n                _VYBE.balanceOf(previous)\n            )\n        );\n        _migrated = true;\n    }\n\n    function staked(address staker) external view returns (uint256) {\n        return _staked[staker];\n    }\n\n    function lastClaim(address staker) external view returns (uint256) {\n        return _lastClaim[staker];\n    }\n\n    function increaseStake(uint256 amount) external {\n        require(!_dated);\n\n        require(_VYBE.transferFrom(msg.sender, address(this), amount));\n        _totalStaked = _totalStaked.add(amount);\n\n        _lastClaim[msg.sender] = block.timestamp;\n        // checks if this is the stakers first deposit\n        if (_firstDeposit[msg.sender] == 0) {\n            _firstDeposit[msg.sender] = block.timestamp;\n        }\n\n        _staked[msg.sender] = _staked[msg.sender].add(amount);\n        emit StakeIncreased(msg.sender, amount);\n    }\n\n    function decreaseStake(uint256 amount) external {\n        _staked[msg.sender] = _staked[msg.sender].sub(amount);\n        _totalStaked = _totalStaked.sub(amount);\n        require(_VYBE.transfer(address(msg.sender), amount));\n        uint256 cutoffPercentage = 5;\n        // checks is the amount they are withdrawing in more than 5% and if it has been over a month since they withdrew less than 5%\n        if (\n            amount >= _staked[msg.sender] * (cutoffPercentage.div(10)) &&\n            _lastDecrease[msg.sender] > MONTH\n        ) {\n            _lastSignificantDecrease[msg.sender] = block.timestamp;\n            _lastDecrease[msg.sender] = block.timestamp;\n            // If they withdraw more than 5% or withdraw less then 5% twice in 1 month then their tier is reset\n        } else {\n            _firstDeposit[msg.sender] = block.timestamp;\n        }\n        emit StakeDecreased(msg.sender, amount);\n    }\n\n    function calculateSupplyDivisor() public view returns (uint256) {\n        // base divisior for 5%\n        uint256 result = uint256(20).add(\n            // get how many months have passed since deployment\n            block\n                .timestamp\n                .sub(_deployedAt)\n                .div(MONTH)\n            // multiply by 5 which will be added, tapering from 20 to 50\n                .mul(5)\n        );\n\n        // set a cap of 50\n        if (result > 50) {\n            result = 50;\n        }\n        return result;\n    }\n\n    // New function for calculating profit\n    function _calculateStakerReward(address staker)\n        private\n        view\n        returns (uint256)\n    {\n        uint256 amount = 0;\n        uint256 stakedTime = block.timestamp.sub(_firstDeposit[staker]);\n        uint256 timeSinceLastDecrease = block.timestamp.sub(\n            _lastSignificantDecrease[staker]\n        );\n        // Platinum Tier\n        if (stakedTime > MONTH.mul(6) && timeSinceLastDecrease > MONTH.mul(6)) {\n            amount = 10;\n            // Gold Tier\n        } else if (\n            stakedTime > MONTH.mul(3) && timeSinceLastDecrease > MONTH.mul(3)\n        ) {\n            amount = 8;\n            // Silver tier\n        } else if (\n            stakedTime > MONTH.mul(1) && timeSinceLastDecrease > MONTH.mul(1)\n        ) {\n            amount = 5;\n        }\n        uint256 StakerReward = _staked[msg.sender] * (amount.div(10));\n\n        return StakerReward;\n    }\n\n    // TODO convert to new function\n    function calculateRewards(address staker) public view returns (uint256) {\n        // removes the five percent for the dev fund\n        return _calculateStakerReward(staker).div(20).mul(19);\n    }\n\n    // new claim rewards\n    function claimRewards() external noReentrancy {\n        require(!_dated);\n        uint256 stakerReward = _calculateStakerReward(msg.sender);\n        uint256 rewardPiece = stakerReward.div(100);\n        require(stakerReward > 0);\n        _lastClaim[msg.sender] = block.timestamp;\n        _staked[msg.sender] = _staked[msg.sender].add(stakerReward);\n        _VYBE.mint(_developerFund, rewardPiece);\n\n        emit Rewards(msg.sender, stakerReward, rewardPiece);\n    }\n\n    function claimNFT(address staker) external noReentrancy {\n        bool claimable = NFTclaimable();\n        if (claimable) {\n            // mint NFT\n        }\n    }\n\n    function NFTclaimable() private view returns (bool) {\n        uint256 stakedTime = block.timestamp.sub(_lastClaim[msg.sender]);\n        // confirm staker is in the Platinum tier\n        if (\n            stakedTime > MONTH.mul(6) &&\n            _lastNFTClaim[msg.sender] > MONTH.mul(1)\n        ) {\n            return true;\n        } else {\n            return false;\n        }\n    }\n\n    function addMelody(address melody) external onlyOwner {\n        _VYBE.approve(melody, UINT256_MAX);\n        emit MelodyAdded(melody);\n    }\n\n    function removeMelody(address melody) external onlyOwner {\n        _VYBE.approve(melody, 0);\n        emit MelodyRemoved(melody);\n    }\n\n    function upgrade(address owned, address upgraded) external onlyOwner {\n        _dated = true;\n        IOwnershipTransferrable(owned).transferOwnership(upgraded);\n    }\n}\n",
  "sourcePath": "/Users/nanoissuperior/vybe/contracts/VybeStake.sol",
  "compiler": {
    "name": "solc",
    "version": "0.6.12+commit.27d51765.Emscripten.clang"
  },
  "schemaVersion": "3.2.4",
  "updatedAt": "2020-11-07T16:41:27.901Z",
  "devdoc": {
    "kind": "dev",
    "methods": {},
    "version": 1
  },
  "userdoc": {
    "kind": "user",
    "methods": {},
    "version": 1
  }
}