{
  "contractName": "VybeStake",
  "abi": [
    {
      "inputs": [
        {
          "internalType": "address",
          "name": "vybe",
          "type": "address"
        }
      ],
      "stateMutability": "nonpayable",
      "type": "constructor"
    },
    {
      "anonymous": false,
      "inputs": [
        {
          "indexed": true,
          "internalType": "address",
          "name": "melody",
          "type": "address"
        }
      ],
      "name": "MelodyAdded",
      "type": "event"
    },
    {
      "anonymous": false,
      "inputs": [
        {
          "indexed": true,
          "internalType": "address",
          "name": "melody",
          "type": "address"
        }
      ],
      "name": "MelodyRemoved",
      "type": "event"
    },
    {
      "anonymous": false,
      "inputs": [
        {
          "indexed": true,
          "internalType": "address",
          "name": "previousOwner",
          "type": "address"
        },
        {
          "indexed": true,
          "internalType": "address",
          "name": "newOwner",
          "type": "address"
        }
      ],
      "name": "OwnershipTransferred",
      "type": "event"
    },
    {
      "anonymous": false,
      "inputs": [
        {
          "indexed": true,
          "internalType": "address",
          "name": "staker",
          "type": "address"
        },
        {
          "indexed": false,
          "internalType": "uint256",
          "name": "mintage",
          "type": "uint256"
        },
        {
          "indexed": false,
          "internalType": "uint256",
          "name": "developerFund",
          "type": "uint256"
        }
      ],
      "name": "Rewards",
      "type": "event"
    },
    {
      "anonymous": false,
      "inputs": [
        {
          "indexed": true,
          "internalType": "address",
          "name": "staker",
          "type": "address"
        },
        {
          "indexed": false,
          "internalType": "uint256",
          "name": "amount",
          "type": "uint256"
        }
      ],
      "name": "StakeDecreased",
      "type": "event"
    },
    {
      "anonymous": false,
      "inputs": [
        {
          "indexed": true,
          "internalType": "address",
          "name": "staker",
          "type": "address"
        },
        {
          "indexed": false,
          "internalType": "uint256",
          "name": "amount",
          "type": "uint256"
        }
      ],
      "name": "StakeIncreased",
      "type": "event"
    },
    {
      "inputs": [],
      "name": "owner",
      "outputs": [
        {
          "internalType": "address",
          "name": "",
          "type": "address"
        }
      ],
      "stateMutability": "view",
      "type": "function",
      "constant": true
    },
    {
      "inputs": [
        {
          "internalType": "address",
          "name": "newOwner",
          "type": "address"
        }
      ],
      "name": "transferOwnership",
      "outputs": [],
      "stateMutability": "nonpayable",
      "type": "function"
    },
    {
      "inputs": [
        {
          "internalType": "address",
          "name": "fund",
          "type": "address"
        }
      ],
      "name": "upgradeDevelopmentFund",
      "outputs": [],
      "stateMutability": "nonpayable",
      "type": "function"
    },
    {
      "inputs": [],
      "name": "vybe",
      "outputs": [
        {
          "internalType": "address",
          "name": "",
          "type": "address"
        }
      ],
      "stateMutability": "view",
      "type": "function",
      "constant": true
    },
    {
      "inputs": [],
      "name": "totalStaked",
      "outputs": [
        {
          "internalType": "uint256",
          "name": "",
          "type": "uint256"
        }
      ],
      "stateMutability": "view",
      "type": "function",
      "constant": true
    },
    {
      "inputs": [
        {
          "internalType": "address",
          "name": "previous",
          "type": "address"
        },
        {
          "internalType": "address[]",
          "name": "people",
          "type": "address[]"
        },
        {
          "internalType": "uint256[]",
          "name": "lastClaims",
          "type": "uint256[]"
        }
      ],
      "name": "migrate",
      "outputs": [],
      "stateMutability": "nonpayable",
      "type": "function"
    },
    {
      "inputs": [
        {
          "internalType": "address",
          "name": "staker",
          "type": "address"
        }
      ],
      "name": "staked",
      "outputs": [
        {
          "internalType": "uint256",
          "name": "",
          "type": "uint256"
        }
      ],
      "stateMutability": "view",
      "type": "function",
      "constant": true
    },
    {
      "inputs": [
        {
          "internalType": "address",
          "name": "staker",
          "type": "address"
        }
      ],
      "name": "lastClaim",
      "outputs": [
        {
          "internalType": "uint256",
          "name": "",
          "type": "uint256"
        }
      ],
      "stateMutability": "view",
      "type": "function",
      "constant": true
    },
    {
      "inputs": [
        {
          "internalType": "uint256",
          "name": "amount",
          "type": "uint256"
        }
      ],
      "name": "increaseStake",
      "outputs": [],
      "stateMutability": "nonpayable",
      "type": "function"
    },
    {
      "inputs": [
        {
          "internalType": "uint256",
          "name": "amount",
          "type": "uint256"
        }
      ],
      "name": "decreaseStake",
      "outputs": [],
      "stateMutability": "nonpayable",
      "type": "function"
    },
    {
      "inputs": [],
      "name": "calculateSupplyDivisor",
      "outputs": [
        {
          "internalType": "uint256",
          "name": "",
          "type": "uint256"
        }
      ],
      "stateMutability": "view",
      "type": "function",
      "constant": true
    },
    {
      "inputs": [
        {
          "internalType": "address",
          "name": "staker",
          "type": "address"
        }
      ],
      "name": "calculateRewards",
      "outputs": [
        {
          "internalType": "uint256",
          "name": "",
          "type": "uint256"
        }
      ],
      "stateMutability": "view",
      "type": "function",
      "constant": true
    },
    {
      "inputs": [],
      "name": "claimRewards",
      "outputs": [],
      "stateMutability": "nonpayable",
      "type": "function"
    },
    {
      "inputs": [
        {
          "internalType": "address",
          "name": "staker",
          "type": "address"
        }
      ],
      "name": "claimNFT",
      "outputs": [],
      "stateMutability": "nonpayable",
      "type": "function"
    },
    {
      "inputs": [
        {
          "internalType": "address",
          "name": "staker",
          "type": "address"
        }
      ],
      "name": "NFTclaimable",
      "outputs": [
        {
          "internalType": "uint256",
          "name": "",
          "type": "uint256"
        }
      ],
      "stateMutability": "view",
      "type": "function",
      "constant": true
    },
    {
      "inputs": [
        {
          "internalType": "address",
          "name": "melody",
          "type": "address"
        }
      ],
      "name": "addMelody",
      "outputs": [],
      "stateMutability": "nonpayable",
      "type": "function"
    },
    {
      "inputs": [
        {
          "internalType": "address",
          "name": "melody",
          "type": "address"
        }
      ],
      "name": "removeMelody",
      "outputs": [],
      "stateMutability": "nonpayable",
      "type": "function"
    },
    {
      "inputs": [
        {
          "internalType": "address",
          "name": "owned",
          "type": "address"
        },
        {
          "internalType": "address",
          "name": "upgraded",
          "type": "address"
        }
      ],
      "name": "upgrade",
      "outputs": [],
      "stateMutability": "nonpayable",
      "type": "function"
    }
  ],
  "bytecode": "0x608060405234801561001057600080fd5b506040516116ec3803806116ec8339818101604052602081101561003357600080fd5b50516000805461010033818102610100600160a81b03199093169290921780845560405192939190046001600160a01b0316917f8be0079c531659141344cd1fd0a4f28419497f9722a3daafe3b4186f6b6457e0908290a350600180546001600160a01b039092166001600160a01b0319928316179055600b80549091163317905542600355611624806100c86000396000f3fe608060405234801561001057600080fd5b50600436106101165760003560e01c806398807d84116100a2578063e8b96de111610071578063e8b96de1146102ab578063eedad66b146102c8578063f2397f3e146102e5578063f2fde38b1461030b578063f31770791461033157610116565b806398807d841461020b57806399a88ec414610231578063d10fdb5c1461025f578063d34309dc1461028557610116565b806364ab8675116100e957806364ab86751461018b5780636b1dd7fd146101b15780636de3ac3f146101d5578063817b1cd2146101fb5780638da5cb5b1461020357610116565b80632da891361461011b578063372500ab146101435780634c885c021461014b5780635c16e15e14610165575b600080fd5b6101416004803603602081101561013157600080fd5b50356001600160a01b0316610468565b005b610141610575565b6101536106c1565b60408051918252519081900360200190f35b6101536004803603602081101561017b57600080fd5b50356001600160a01b0316610710565b610153600480360360208110156101a157600080fd5b50356001600160a01b031661072b565b6101b9610746565b604080516001600160a01b039092168252519081900360200190f35b610141600480360360208110156101eb57600080fd5b50356001600160a01b0316610755565b6101536107d6565b6101b96107dc565b6101536004803603602081101561022157600080fd5b50356001600160a01b03166107f0565b6101416004803603604081101561024757600080fd5b506001600160a01b038135811691602001351661080b565b6101416004803603602081101561027557600080fd5b50356001600160a01b03166108d7565b6101536004803603602081101561029b57600080fd5b50356001600160a01b031661097f565b610141600480360360208110156102c157600080fd5b5035610a78565b610141600480360360208110156102de57600080fd5b5035610bf2565b610141600480360360208110156102fb57600080fd5b50356001600160a01b0316610d42565b6101416004803603602081101561032157600080fd5b50356001600160a01b0316610e4e565b6101416004803603606081101561034757600080fd5b6001600160a01b03823516919081019060408101602082013564010000000081111561037257600080fd5b82018360208201111561038457600080fd5b803590602001918460208302840111640100000000831117156103a657600080fd5b91908080602002602001604051908101604052809392919081815260200183836020028082843760009201919091525092959493602081019350359150506401000000008111156103f657600080fd5b82018360208201111561040857600080fd5b8035906020019184602083028401116401000000008311171561042a57600080fd5b919080806020026020016040519081016040528093929190818152602001838360200280828437600092019190915250929550610f58945050505050565b60005461010090046001600160a01b031633146104ba576040805162461bcd60e51b815260206004820181905260248201526000805160206115cf833981519152604482015290519081900360640190fd5b6001546040805163095ea7b360e01b81526001600160a01b038481166004830152600060248301819052925193169263095ea7b392604480840193602093929083900390910190829087803b15801561051257600080fd5b505af1158015610526573d6000803e3d6000fd5b505050506040513d602081101561053c57600080fd5b50506040516001600160a01b038216907f3161d766eb7d07d5e1ceea9abc5160636a3ec586a0f95a0c0cf367af6706d0b790600090a250565b60005460ff161561058557600080fd5b6000805460ff19166001179055600254600160a01b900460ff16156105a957600080fd5b60006105b43361123c565b905060006105c3826064611354565b9050600082116105d257600080fd5b33600090815260066020908152604080832042905560059091529020546105f99083611396565b3360009081526005602052604080822092909255600154600b5483516340c10f1960e01b81526001600160a01b0391821660048201526024810186905293519116926340c10f1992604480830193919282900301818387803b15801561065e57600080fd5b505af1158015610672573d6000803e3d6000fd5b5050604080518581526020810185905281513394507f61953b03ced70bb23c53b5a7058e431e3db88cf84a72660faea0849b785c43bd93509081900390910190a250506000805460ff19169055565b6000806106fc6106f460056106ee62278d006106e8600354426113f090919063ffffffff16565b90611354565b90611432565b601490611396565b9050603281111561070b575060325b905090565b6001600160a01b031660009081526006602052604090205490565b600061074060136106ee60146106e88661123c565b92915050565b6001546001600160a01b031690565b60005461010090046001600160a01b031633146107a7576040805162461bcd60e51b815260206004820181905260248201526000805160206115cf833981519152604482015290519081900360640190fd5b600b805473ffffffffffffffffffffffffffffffffffffffff19166001600160a01b0392909216919091179055565b60045490565b60005461010090046001600160a01b031690565b6001600160a01b031660009081526005602052604090205490565b60005461010090046001600160a01b0316331461085d576040805162461bcd60e51b815260206004820181905260248201526000805160206115cf833981519152604482015290519081900360640190fd5b6002805460ff60a01b1916600160a01b1790556040805163f2fde38b60e01b81526001600160a01b03838116600483015291519184169163f2fde38b9160248082019260009290919082900301818387803b1580156108bb57600080fd5b505af11580156108cf573d6000803e3d6000fd5b505050505050565b60005460ff16156108e757600080fd5b6000805460ff191660011781556108fd8261097f565b9050801561097157600254604080516340c10f1960e01b81523360048201526024810184905290516001600160a01b03909216916340c10f199160448082019260009290919082900301818387803b15801561095857600080fd5b505af115801561096c573d6000803e3d6000fd5b505050505b50506000805460ff19169055565b6001600160a01b03811660009081526006602052604081205481906109a59042906113f0565b905060006109b762278d006006611432565b821180156109e057506109ce62278d006001611432565b336000908152600a6020526040902054115b156109ed57506003610a71565b6109fb62278d006003611432565b82118015610a245750610a1262278d006001611432565b336000908152600a6020526040902054115b15610a3157506002610a71565b610a3f62278d006001611432565b82118015610a685750610a5662278d006001611432565b336000908152600a6020526040902054115b15610a71575060015b9392505050565b33600090815260056020526040902054610a9290826113f0565b33600090815260056020526040902055600454610aaf90826113f0565b60049081556001546040805163a9059cbb60e01b8152339381019390935260248301849052516001600160a01b039091169163a9059cbb9160448083019260209291908290030181600087803b158015610b0857600080fd5b505af1158015610b1c573d6000803e3d6000fd5b505050506040513d6020811015610b3257600080fd5b5051610b3d57600080fd5b6005610b4a81600a611354565b33600090815260056020526040902054028210801590610b7b57503360009081526009602052604090205462278d00105b15610ba5573360009081526008602090815260408083204290819055600990925290912055610bb8565b3360009081526007602052604090204290555b60408051838152905133917f700865370ffb2a65a2b0242e6a64b21ac907ed5ecd46c9cffc729c177b2b1c69919081900360200190a25050565b600254600160a01b900460ff1615610c0957600080fd5b600154604080516323b872dd60e01b81523360048201523060248201526044810184905290516001600160a01b03909216916323b872dd916064808201926020929091908290030181600087803b158015610c6357600080fd5b505af1158015610c77573d6000803e3d6000fd5b505050506040513d6020811015610c8d57600080fd5b5051610c9857600080fd5b600454610ca59082611396565b6004553360009081526006602090815260408083204290556007909152902054610cdc573360009081526007602052604090204290555b33600090815260056020526040902054610cf69082611396565b33600081815260056020908152604091829020939093558051848152905191927f8b0ed825817a2e696c9a931715af4609fc60e1701f09c89ee7645130e937eb2d92918290030190a250565b60005461010090046001600160a01b03163314610d94576040805162461bcd60e51b815260206004820181905260248201526000805160206115cf833981519152604482015290519081900360640190fd5b6001546040805163095ea7b360e01b81526001600160a01b03848116600483015260001960248301529151919092169163095ea7b39160448083019260209291908290030181600087803b158015610deb57600080fd5b505af1158015610dff573d6000803e3d6000fd5b505050506040513d6020811015610e1557600080fd5b50506040516001600160a01b038216907fb87d41b5cab885fb2ce4b4c06efc62eea320378130b36c709de7d45facaa1bc890600090a250565b60005461010090046001600160a01b03163314610ea0576040805162461bcd60e51b815260206004820181905260248201526000805160206115cf833981519152604482015290519081900360640190fd5b6001600160a01b038116610ee55760405162461bcd60e51b81526004018080602001828103825260268152602001806115886026913960400191505060405180910390fd5b600080546040516001600160a01b038085169361010090930416917f8be0079c531659141344cd1fd0a4f28419497f9722a3daafe3b4186f6b6457e091a3600080546001600160a01b039092166101000274ffffffffffffffffffffffffffffffffffffffff0019909216919091179055565b600254600160a81b900460ff1615610f6f57600080fd5b8051825114610f7d57600080fd5b60005b8251811015611113576000846001600160a01b03166398807d84858481518110610fa657fe5b60200260200101516040518263ffffffff1660e01b815260040180826001600160a01b0316815260200191505060206040518083038186803b158015610feb57600080fd5b505afa158015610fff573d6000803e3d6000fd5b505050506040513d602081101561101557600080fd5b50518451909150819060059060009087908690811061103057fe5b6020908102919091018101516001600160a01b03168252810191909152604001600020556004546110619082611396565b600455825183908390811061107257fe5b60200260200101516006600086858151811061108a57fe5b60200260200101516001600160a01b03166001600160a01b03168152602001908152602001600020819055508382815181106110c257fe5b60200260200101516001600160a01b03167f8b0ed825817a2e696c9a931715af4609fc60e1701f09c89ee7645130e937eb2d826040518082815260200191505060405180910390a250600101610f80565b50600154604080516370a0823160e01b81526001600160a01b038681166004830152915191909216916323b872dd918691309185916370a08231916024808301926020929190829003018186803b15801561116d57600080fd5b505afa158015611181573d6000803e3d6000fd5b505050506040513d602081101561119757600080fd5b5051604080516001600160e01b031960e087901b1681526001600160a01b0394851660048201529290931660248301526044820152905160648083019260209291908290030181600087803b1580156111ef57600080fd5b505af1158015611203573d6000803e3d6000fd5b505050506040513d602081101561121957600080fd5b505161122457600080fd5b50506002805460ff60a81b1916600160a81b17905550565b6001600160a01b038116600090815260076020526040812054819081906112649042906113f0565b6001600160a01b0385166000908152600860205260408120549192509061128c9042906113f0565b905061129c62278d006006611432565b821180156112b657506112b362278d006006611432565b81115b156112c457600a925061132c565b6112d262278d006003611432565b821180156112ec57506112e962278d006003611432565b81115b156112fa576008925061132c565b61130862278d006001611432565b82118015611322575061131f62278d006001611432565b81115b1561132c57600592505b600061133984600a611354565b33600090815260056020526040902054029695505050505050565b6000610a7183836040518060400160405280601a81526020017f536166654d6174683a206469766973696f6e206279207a65726f00000000000081525061148b565b600082820183811015610a71576040805162461bcd60e51b815260206004820152601b60248201527f536166654d6174683a206164646974696f6e206f766572666c6f770000000000604482015290519081900360640190fd5b6000610a7183836040518060400160405280601e81526020017f536166654d6174683a207375627472616374696f6e206f766572666c6f77000081525061152d565b60008261144157506000610740565b8282028284828161144e57fe5b0414610a715760405162461bcd60e51b81526004018080602001828103825260218152602001806115ae6021913960400191505060405180910390fd5b600081836115175760405162461bcd60e51b81526004018080602001828103825283818151815260200191508051906020019080838360005b838110156114dc5781810151838201526020016114c4565b50505050905090810190601f1680156115095780820380516001836020036101000a031916815260200191505b509250505060405180910390fd5b50600083858161152357fe5b0495945050505050565b6000818484111561157f5760405162461bcd60e51b81526020600482018181528351602484015283519092839260449091019190850190808383600083156114dc5781810151838201526020016114c4565b50505090039056fe4f776e61626c653a206e6577206f776e657220697320746865207a65726f2061646472657373536166654d6174683a206d756c7469706c69636174696f6e206f766572666c6f774f776e61626c653a2063616c6c6572206973206e6f7420746865206f776e6572a26469706673582212202135708dca221e9a914fc904d19004583fc3cfe75984be38fdf16f7a02e4c18f64736f6c634300060c0033",
  "immutableReferences": {},
  "source": "// SPDX-License-Identifier: MIT\npragma solidity ^0.6.0;\n\nimport \"node_modules/@openzeppelin/contracts/math/SafeMath.sol\";\nimport \"./IOwnershipTransferrable.sol\";\nimport \"./ReentrancyGuard.sol\";\nimport \"./Vybe.sol\";\nimport \"./TierReward.sol\";\n\ncontract VybeStake is ReentrancyGuard, Ownable {\n    using SafeMath for uint256;\n\n    uint256 constant UINT256_MAX = ~uint256(0);\n    uint256 constant MONTH = 30 days;\n\n    Vybe private _VYBE;\n    TierReward private _TierReward;\n\n    bool private _dated;\n    bool private _migrated;\n    uint256 _deployedAt;\n\n    uint256 _totalStaked;\n    mapping(address => uint256) private _staked;\n    mapping(address => uint256) private _lastClaim;\n    mapping(address => uint256) private _firstDeposit;\n    mapping(address => uint256) private _lastSignificantDecrease;\n    mapping(address => uint256) private _lastDecrease;\n    mapping(address => uint256) private _lastNFTClaim;\n    address private _developerFund;\n\n    event StakeIncreased(address indexed staker, uint256 amount);\n    event StakeDecreased(address indexed staker, uint256 amount);\n    event Rewards(\n        address indexed staker,\n        uint256 mintage,\n        uint256 developerFund\n    );\n    event MelodyAdded(address indexed melody);\n    event MelodyRemoved(address indexed melody);\n\n    constructor(address vybe) public Ownable(msg.sender) {\n        _VYBE = Vybe(vybe);\n        _developerFund = msg.sender;\n        _deployedAt = block.timestamp;\n    }\n\n    function upgradeDevelopmentFund(address fund) external onlyOwner {\n        _developerFund = fund;\n    }\n\n    function vybe() external view returns (address) {\n        return address(_VYBE);\n    }\n\n    function totalStaked() external view returns (uint256) {\n        return _totalStaked;\n    }\n\n    // To do\n    // function viewAllStakers() external view returns (address[] memory) {}\n\n    function migrate(\n        address previous,\n        address[] memory people,\n        uint256[] memory lastClaims\n    ) external {\n        require(!_migrated);\n        require(people.length == lastClaims.length);\n        for (uint256 i = 0; i < people.length; i++) {\n            uint256 staked = VybeStake(previous).staked(people[i]);\n            _staked[people[i]] = staked;\n            _totalStaked = _totalStaked.add(staked);\n            _lastClaim[people[i]] = lastClaims[i];\n            emit StakeIncreased(people[i], staked);\n        }\n        require(\n            _VYBE.transferFrom(\n                previous,\n                address(this),\n                _VYBE.balanceOf(previous)\n            )\n        );\n        _migrated = true;\n    }\n\n    function staked(address staker) external view returns (uint256) {\n        return _staked[staker];\n    }\n\n    function lastClaim(address staker) external view returns (uint256) {\n        return _lastClaim[staker];\n    }\n\n    function increaseStake(uint256 amount) external {\n        require(!_dated);\n\n        require(_VYBE.transferFrom(msg.sender, address(this), amount));\n        _totalStaked = _totalStaked.add(amount);\n\n        _lastClaim[msg.sender] = block.timestamp;\n        // checks if this is the stakers first deposit\n        if (_firstDeposit[msg.sender] == 0) {\n            _firstDeposit[msg.sender] = block.timestamp;\n        }\n\n        _staked[msg.sender] = _staked[msg.sender].add(amount);\n        emit StakeIncreased(msg.sender, amount);\n    }\n\n    function decreaseStake(uint256 amount) external {\n        _staked[msg.sender] = _staked[msg.sender].sub(amount);\n        _totalStaked = _totalStaked.sub(amount);\n        require(_VYBE.transfer(address(msg.sender), amount));\n        uint256 cutoffPercentage = 5;\n        // checks is the amount they are withdrawing in more than 5% and if it has been over a month since they withdrew less than 5%\n        if (\n            amount >= _staked[msg.sender] * (cutoffPercentage.div(10)) &&\n            _lastDecrease[msg.sender] > MONTH\n        ) {\n            _lastSignificantDecrease[msg.sender] = block.timestamp;\n            _lastDecrease[msg.sender] = block.timestamp;\n            // If they withdraw more than 5% or withdraw less then 5% twice in 1 month then their tier is reset\n        } else {\n            _firstDeposit[msg.sender] = block.timestamp;\n        }\n        emit StakeDecreased(msg.sender, amount);\n    }\n\n    function calculateSupplyDivisor() public view returns (uint256) {\n        // base divisior for 5%\n        uint256 result = uint256(20).add(\n            // get how many months have passed since deployment\n            block\n                .timestamp\n                .sub(_deployedAt)\n                .div(MONTH)\n            // multiply by 5 which will be added, tapering from 20 to 50\n                .mul(5)\n        );\n\n        // set a cap of 50\n        if (result > 50) {\n            result = 50;\n        }\n        return result;\n    }\n\n    // New function for calculating profit\n    function _calculateStakerReward(address staker)\n        private\n        view\n        returns (uint256)\n    {\n        uint256 amount = 0;\n        uint256 stakedTime = block.timestamp.sub(_firstDeposit[staker]);\n        uint256 timeSinceLastDecrease = block.timestamp.sub(\n            _lastSignificantDecrease[staker]\n        );\n        // Platinum Tier\n        if (stakedTime > MONTH.mul(6) && timeSinceLastDecrease > MONTH.mul(6)) {\n            amount = 10;\n            // Gold Tier\n        } else if (\n            stakedTime > MONTH.mul(3) && timeSinceLastDecrease > MONTH.mul(3)\n        ) {\n            amount = 8;\n            // Silver tier\n        } else if (\n            stakedTime > MONTH.mul(1) && timeSinceLastDecrease > MONTH.mul(1)\n        ) {\n            amount = 5;\n        }\n        uint256 StakerReward = _staked[msg.sender] * (amount.div(10));\n\n        return StakerReward;\n    }\n\n    // TODO convert to new function\n    function calculateRewards(address staker) public view returns (uint256) {\n        // removes the five percent for the dev fund\n        return _calculateStakerReward(staker).div(20).mul(19);\n    }\n\n    // new claim rewards\n    function claimRewards() external noReentrancy {\n        require(!_dated);\n        uint256 stakerReward = _calculateStakerReward(msg.sender);\n        uint256 rewardPiece = stakerReward.div(100);\n        require(stakerReward > 0);\n        _lastClaim[msg.sender] = block.timestamp;\n        _staked[msg.sender] = _staked[msg.sender].add(stakerReward);\n        _VYBE.mint(_developerFund, rewardPiece);\n\n        emit Rewards(msg.sender, stakerReward, rewardPiece);\n    }\n\n    function claimNFT(address staker) external noReentrancy {\n       uint256 whichTier = NFTclaimable(staker);\n       if (whichTier > 0) {\n            _TierReward.mint(msg.sender, whichTier);\n       }\n    }\n\n    function NFTclaimable(address staker) public view returns (uint256) {\n        uint256 stakedTime = block.timestamp.sub(_lastClaim[staker]);\n        uint256 result = 0;\n       if (\n            stakedTime > MONTH.mul(6) &&\n            _lastNFTClaim[msg.sender] > MONTH.mul(1)\n        ) {\n\n          result = 3;\n\n          }\n          // check if staker is in the gold tier \n          else if \n          (stakedTime > MONTH.mul(3) &&\n            _lastNFTClaim[msg.sender] > MONTH.mul(1))\n             {\n              result = 2;\n            } \n            // check if stake is in the silver tier\n            else if \n            (stakedTime > MONTH.mul(1) &&\n            _lastNFTClaim[msg.sender] > MONTH.mul(1)) \n            {\n              result = 1;\n            }\n        \n         return result;\n    \n    }\n\n    function addMelody(address melody) external onlyOwner {\n        _VYBE.approve(melody, UINT256_MAX);\n        emit MelodyAdded(melody);\n    }\n\n    function removeMelody(address melody) external onlyOwner {\n        _VYBE.approve(melody, 0);\n        emit MelodyRemoved(melody);\n    }\n\n    function upgrade(address owned, address upgraded) external onlyOwner {\n        _dated = true;\n        IOwnershipTransferrable(owned).transferOwnership(upgraded);\n    }\n}\n",
  "sourcePath": "/Users/nanoissuperior/vybe/contracts/VybeStake.sol",
  "compiler": {
    "name": "solc",
    "version": "0.6.12+commit.27d51765.Emscripten.clang"
  },
  "schemaVersion": "3.2.4",
  "updatedAt": "2020-11-09T15:24:29.582Z",
  "networkType": "ethereum",
  "devdoc": {
    "kind": "dev",
    "methods": {},
    "version": 1
  },
  "userdoc": {
    "kind": "user",
    "methods": {},
    "version": 1
  }
}