{
  "contractName": "VybeDAO",
  "abi": [
    {
      "inputs": [
        {
          "internalType": "address",
          "name": "stake",
          "type": "address"
        }
      ],
      "stateMutability": "nonpayable",
      "type": "constructor"
    },
    {
      "anonymous": false,
      "inputs": [
        {
          "indexed": true,
          "internalType": "uint64",
          "name": "proposal",
          "type": "uint64"
        },
        {
          "indexed": false,
          "internalType": "address",
          "name": "newDAO",
          "type": "address"
        }
      ],
      "name": "DAOUpgradeProposed",
      "type": "event"
    },
    {
      "anonymous": false,
      "inputs": [
        {
          "indexed": true,
          "internalType": "uint64",
          "name": "proposal",
          "type": "uint64"
        },
        {
          "indexed": true,
          "internalType": "address",
          "name": "destination",
          "type": "address"
        },
        {
          "indexed": false,
          "internalType": "uint256",
          "name": "amount",
          "type": "uint256"
        }
      ],
      "name": "FundProposed",
      "type": "event"
    },
    {
      "anonymous": false,
      "inputs": [
        {
          "indexed": true,
          "internalType": "uint64",
          "name": "proposal",
          "type": "uint64"
        },
        {
          "indexed": false,
          "internalType": "address",
          "name": "melody",
          "type": "address"
        }
      ],
      "name": "MelodyAdditionProposed",
      "type": "event"
    },
    {
      "anonymous": false,
      "inputs": [
        {
          "indexed": true,
          "internalType": "uint64",
          "name": "proposal",
          "type": "uint64"
        },
        {
          "indexed": false,
          "internalType": "address",
          "name": "melody",
          "type": "address"
        }
      ],
      "name": "MelodyRemovalProposed",
      "type": "event"
    },
    {
      "anonymous": false,
      "inputs": [
        {
          "indexed": true,
          "internalType": "uint64",
          "name": "proposal",
          "type": "uint64"
        }
      ],
      "name": "NewProposal",
      "type": "event"
    },
    {
      "anonymous": false,
      "inputs": [
        {
          "indexed": true,
          "internalType": "uint64",
          "name": "proposal",
          "type": "uint64"
        }
      ],
      "name": "ProposalPassed",
      "type": "event"
    },
    {
      "anonymous": false,
      "inputs": [
        {
          "indexed": true,
          "internalType": "uint64",
          "name": "proposal",
          "type": "uint64"
        }
      ],
      "name": "ProposalRemoved",
      "type": "event"
    },
    {
      "anonymous": false,
      "inputs": [
        {
          "indexed": true,
          "internalType": "uint64",
          "name": "proposal",
          "type": "uint64"
        },
        {
          "indexed": true,
          "internalType": "address",
          "name": "staker",
          "type": "address"
        }
      ],
      "name": "ProposalVoteAdded",
      "type": "event"
    },
    {
      "anonymous": false,
      "inputs": [
        {
          "indexed": true,
          "internalType": "uint64",
          "name": "proposal",
          "type": "uint64"
        },
        {
          "indexed": true,
          "internalType": "address",
          "name": "staker",
          "type": "address"
        }
      ],
      "name": "ProposalVoteRemoved",
      "type": "event"
    },
    {
      "anonymous": false,
      "inputs": [
        {
          "indexed": true,
          "internalType": "uint64",
          "name": "proposal",
          "type": "uint64"
        },
        {
          "indexed": false,
          "internalType": "address",
          "name": "newStake",
          "type": "address"
        }
      ],
      "name": "StakeUpgradeProposed",
      "type": "event"
    },
    {
      "inputs": [
        {
          "internalType": "uint64",
          "name": "",
          "type": "uint64"
        }
      ],
      "name": "_daoUpgradeProposals",
      "outputs": [
        {
          "internalType": "address",
          "name": "newDAO",
          "type": "address"
        },
        {
          "internalType": "string",
          "name": "info",
          "type": "string"
        }
      ],
      "stateMutability": "view",
      "type": "function",
      "constant": true
    },
    {
      "inputs": [
        {
          "internalType": "uint64",
          "name": "",
          "type": "uint64"
        }
      ],
      "name": "_fundProposals",
      "outputs": [
        {
          "internalType": "address",
          "name": "destination",
          "type": "address"
        },
        {
          "internalType": "uint256",
          "name": "amount",
          "type": "uint256"
        },
        {
          "internalType": "string",
          "name": "info",
          "type": "string"
        }
      ],
      "stateMutability": "view",
      "type": "function",
      "constant": true
    },
    {
      "inputs": [
        {
          "internalType": "uint64",
          "name": "",
          "type": "uint64"
        }
      ],
      "name": "_melodyAdditionProposals",
      "outputs": [
        {
          "internalType": "address",
          "name": "melody",
          "type": "address"
        },
        {
          "internalType": "string",
          "name": "info",
          "type": "string"
        }
      ],
      "stateMutability": "view",
      "type": "function",
      "constant": true
    },
    {
      "inputs": [
        {
          "internalType": "uint64",
          "name": "",
          "type": "uint64"
        }
      ],
      "name": "_melodyRemovalProposals",
      "outputs": [
        {
          "internalType": "address",
          "name": "melody",
          "type": "address"
        },
        {
          "internalType": "string",
          "name": "info",
          "type": "string"
        }
      ],
      "stateMutability": "view",
      "type": "function",
      "constant": true
    },
    {
      "inputs": [
        {
          "internalType": "uint64",
          "name": "",
          "type": "uint64"
        }
      ],
      "name": "_stakeUpgradeProposals",
      "outputs": [
        {
          "internalType": "address",
          "name": "newStake",
          "type": "address"
        },
        {
          "internalType": "string",
          "name": "info",
          "type": "string"
        }
      ],
      "stateMutability": "view",
      "type": "function",
      "constant": true
    },
    {
      "inputs": [
        {
          "internalType": "uint64",
          "name": "",
          "type": "uint64"
        }
      ],
      "name": "proposals",
      "outputs": [
        {
          "internalType": "enum VybeDAO.ProposalType",
          "name": "pType",
          "type": "uint8"
        },
        {
          "internalType": "address",
          "name": "creator",
          "type": "address"
        },
        {
          "internalType": "uint256",
          "name": "submitted",
          "type": "uint256"
        },
        {
          "internalType": "bool",
          "name": "completed",
          "type": "bool"
        }
      ],
      "stateMutability": "view",
      "type": "function",
      "constant": true
    },
    {
      "inputs": [
        {
          "internalType": "uint64",
          "name": "",
          "type": "uint64"
        },
        {
          "internalType": "address",
          "name": "",
          "type": "address"
        }
      ],
      "name": "used",
      "outputs": [
        {
          "internalType": "bool",
          "name": "",
          "type": "bool"
        }
      ],
      "stateMutability": "view",
      "type": "function",
      "constant": true
    },
    {
      "inputs": [],
      "name": "upgraded",
      "outputs": [
        {
          "internalType": "bool",
          "name": "",
          "type": "bool"
        }
      ],
      "stateMutability": "view",
      "type": "function",
      "constant": true
    },
    {
      "inputs": [],
      "name": "upgrade",
      "outputs": [
        {
          "internalType": "address",
          "name": "",
          "type": "address"
        }
      ],
      "stateMutability": "view",
      "type": "function",
      "constant": true
    },
    {
      "inputs": [],
      "name": "stake",
      "outputs": [
        {
          "internalType": "address",
          "name": "",
          "type": "address"
        }
      ],
      "stateMutability": "view",
      "type": "function",
      "constant": true
    },
    {
      "inputs": [
        {
          "internalType": "address",
          "name": "destination",
          "type": "address"
        },
        {
          "internalType": "uint256",
          "name": "amount",
          "type": "uint256"
        },
        {
          "internalType": "string",
          "name": "info",
          "type": "string"
        }
      ],
      "name": "proposeFund",
      "outputs": [
        {
          "internalType": "uint64",
          "name": "",
          "type": "uint64"
        }
      ],
      "stateMutability": "nonpayable",
      "type": "function"
    },
    {
      "inputs": [
        {
          "internalType": "address",
          "name": "melody",
          "type": "address"
        },
        {
          "internalType": "string",
          "name": "info",
          "type": "string"
        }
      ],
      "name": "proposeMelodyAddition",
      "outputs": [
        {
          "internalType": "uint64",
          "name": "",
          "type": "uint64"
        }
      ],
      "stateMutability": "nonpayable",
      "type": "function"
    },
    {
      "inputs": [
        {
          "internalType": "address",
          "name": "melody",
          "type": "address"
        },
        {
          "internalType": "string",
          "name": "info",
          "type": "string"
        }
      ],
      "name": "proposeMelodyRemoval",
      "outputs": [
        {
          "internalType": "uint64",
          "name": "",
          "type": "uint64"
        }
      ],
      "stateMutability": "nonpayable",
      "type": "function"
    },
    {
      "inputs": [
        {
          "internalType": "address",
          "name": "newStake",
          "type": "address"
        },
        {
          "internalType": "address[]",
          "name": "owned",
          "type": "address[]"
        },
        {
          "internalType": "string",
          "name": "info",
          "type": "string"
        }
      ],
      "name": "proposeStakeUpgrade",
      "outputs": [
        {
          "internalType": "uint64",
          "name": "",
          "type": "uint64"
        }
      ],
      "stateMutability": "nonpayable",
      "type": "function"
    },
    {
      "inputs": [
        {
          "internalType": "address",
          "name": "newDAO",
          "type": "address"
        },
        {
          "internalType": "string",
          "name": "info",
          "type": "string"
        }
      ],
      "name": "proposeDAOUpgrade",
      "outputs": [
        {
          "internalType": "uint64",
          "name": "",
          "type": "uint64"
        }
      ],
      "stateMutability": "nonpayable",
      "type": "function"
    },
    {
      "inputs": [
        {
          "internalType": "uint64",
          "name": "proposalID",
          "type": "uint64"
        }
      ],
      "name": "addVote",
      "outputs": [],
      "stateMutability": "nonpayable",
      "type": "function"
    },
    {
      "inputs": [
        {
          "internalType": "uint64",
          "name": "proposalID",
          "type": "uint64"
        }
      ],
      "name": "removeVote",
      "outputs": [],
      "stateMutability": "nonpayable",
      "type": "function"
    },
    {
      "inputs": [],
      "name": "forwardVYBE",
      "outputs": [],
      "stateMutability": "nonpayable",
      "type": "function"
    },
    {
      "inputs": [
        {
          "internalType": "uint64",
          "name": "proposalID",
          "type": "uint64"
        },
        {
          "internalType": "address[]",
          "name": "stakers",
          "type": "address[]"
        }
      ],
      "name": "completeProposal",
      "outputs": [],
      "stateMutability": "nonpayable",
      "type": "function"
    },
    {
      "inputs": [
        {
          "internalType": "uint64",
          "name": "proposalID",
          "type": "uint64"
        }
      ],
      "name": "withdrawProposal",
      "outputs": [],
      "stateMutability": "nonpayable",
      "type": "function"
    }
  ],
  "bytecode": "0x608060405234801561001057600080fd5b506040516125733803806125738339818101604052602081101561003357600080fd5b5051600980546001600160a01b0319166001600160a01b03808416919091179182905560408051636b1dd7fd60e01b815290519290911691636b1dd7fd916004808201926020929091908290030181600087803b15801561009357600080fd5b505af11580156100a7573d6000803e3d6000fd5b505050506040513d60208110156100bd57600080fd5b5051600a80546001600160a01b0319166001600160a01b0390921691909117905550612485806100ee6000396000f3fe608060405234801561001057600080fd5b506004361061012c5760003560e01c80637e8de02e116100ad578063d55ec69711610071578063d55ec697146106c2578063d979c4aa146106ca578063da6aaeab146106f0578063df7400cb14610716578063eb1ea9c6146107945761012c565b80637e8de02e146105b657806380a5bdfb146105dc578063a76cf56e14610602578063c28de2cd14610628578063d37b7fa6146106445761012c565b80633a4b66f1116100f45780633a4b66f1146103865780634c01cb57146103aa5780636bda20341461045857806371fb7cf11461050d5780637586d6ce146105905761012c565b806307e9bf5b14610131578063198743561461013b57806319db3f2a146101d55780631d6ec3561461025357806331c5eec814610321575b600080fd5b6101396107c9565b005b6101b96004803603604081101561015157600080fd5b6001600160a01b038235169190810190604081016020820135600160201b81111561017b57600080fd5b82018360208201111561018d57600080fd5b803590602001918460018302840111600160201b831117156101ae57600080fd5b5090925090506108e8565b604080516001600160401b039092168252519081900360200190f35b610139600480360360408110156101eb57600080fd5b6001600160401b038235169190810190604081016020820135600160201b81111561021557600080fd5b82018360208201111561022757600080fd5b803590602001918460208302840111600160201b8311171561024857600080fd5b5090925090506109e9565b6101b96004803603606081101561026957600080fd5b6001600160a01b038235169190810190604081016020820135600160201b81111561029357600080fd5b8201836020820111156102a557600080fd5b803590602001918460208302840111600160201b831117156102c657600080fd5b919390929091602081019035600160201b8111156102e357600080fd5b8201836020820111156102f557600080fd5b803590602001918460018302840111600160201b8311171561031657600080fd5b509092509050611522565b6103476004803603602081101561033757600080fd5b50356001600160401b03166116da565b6040518085600581111561035757fe5b81526001600160a01b039094166020850152506040808401929092521515606083015251908190036080019150f35b61038e611711565b604080516001600160a01b039092168252519081900360200190f35b6103d0600480360360208110156103c057600080fd5b50356001600160401b0316611720565b60405180836001600160a01b0316815260200180602001828103825283818151815260200191508051906020019080838360005b8381101561041c578181015183820152602001610404565b50505050905090810190601f1680156104495780820380516001836020036101000a031916815260200191505b50935050505060405180910390f35b61047e6004803603602081101561046e57600080fd5b50356001600160401b03166117d4565b60405180846001600160a01b0316815260200183815260200180602001828103825283818151815260200191508051906020019080838360005b838110156104d05781810151838201526020016104b8565b50505050905090810190601f1680156104fd5780820380516001836020036101000a031916815260200191505b5094505050505060405180910390f35b6101b96004803603606081101561052357600080fd5b6001600160a01b0382351691602081013591810190606081016040820135600160201b81111561055257600080fd5b82018360208201111561056457600080fd5b803590602001918460018302840111600160201b8311171561058557600080fd5b50909250905061188a565b610139600480360360208110156105a657600080fd5b50356001600160401b03166119a1565b610139600480360360208110156105cc57600080fd5b50356001600160401b0316611ac9565b6103d0600480360360208110156105f257600080fd5b50356001600160401b0316611bc9565b6101396004803603602081101561061857600080fd5b50356001600160401b0316611c48565b610630611d4d565b604080519115158252519081900360200190f35b6101b96004803603604081101561065a57600080fd5b6001600160a01b038235169190810190604081016020820135600160201b81111561068457600080fd5b82018360208201111561069657600080fd5b803590602001918460018302840111600160201b831117156106b757600080fd5b509092509050611d5e565b61038e611e5f565b6103d0600480360360208110156106e057600080fd5b50356001600160401b0316611e6e565b6103d06004803603602081101561070657600080fd5b50356001600160401b0316611ee9565b6101b96004803603604081101561072c57600080fd5b6001600160a01b038235169190810190604081016020820135600160201b81111561075657600080fd5b82018360208201111561076857600080fd5b803590602001918460018302840111600160201b8311171561078957600080fd5b509092509050611f68565b610630600480360360408110156107aa57600080fd5b5080356001600160401b031690602001356001600160a01b0316612069565b6008546001600160a01b03166107de57600080fd5b600a54600854604080516370a0823160e01b815230600482015290516001600160a01b039384169363a9059cbb93169184916370a0823191602480820192602092909190829003018186803b15801561083657600080fd5b505afa15801561084a573d6000803e3d6000fd5b505050506040513d602081101561086057600080fd5b5051604080516001600160e01b031960e086901b1681526001600160a01b03909316600484015260248301919091525160448083019260209291908290030181600087803b1580156108b157600080fd5b505af11580156108c5573d6000803e3d6000fd5b505050506040513d60208110156108db57600080fd5b50516108e657600080fd5b565b6000806108f56003612089565b90506040518060400160405280866001600160a01b0316815260200185858080601f01602080910402602001604051908101604052809392919081815260200183838082843760009201829052509390945250506001600160401b0384168152600560209081526040909120835181546001600160a01b0319166001600160a01b039091161781558382015180519193506109979260018501929101906122e8565b5050604080516001600160a01b038816815290516001600160401b03841692507f339826f1c3d7b31c2395903a0738e18e4c9463f3d6749d47e35a9feb2344e8db9181900360200190a2949350505050565b6008546001600160a01b0316156109ff57600080fd5b8260006001600160401b03821660009081526001602052604090205460ff166005811115610a2957fe5b1415610a3457600080fd5b6001600160401b03811660009081526001602052604090206003015460ff1615610a5d57600080fd5b6001600160401b038116600090815260016020819052604090912001544262278d0090910111610a8c57600080fd5b60005460ff1615610a9c57600080fd5b6000805460ff1916600190811782556001600160401b03861682526020819052604082209190825460ff166005811115610ad257fe5b1480610aed57506003825460ff166005811115610aeb57fe5b145b15610b8b57610b846001610b7e6002600960009054906101000a90046001600160a01b03166001600160a01b031663817b1cd26040518163ffffffff1660e01b8152600401602060405180830381600087803b158015610b4c57600080fd5b505af1158015610b60573d6000803e3d6000fd5b505050506040513d6020811015610b7657600080fd5b505190612284565b906122a8565b9050610c99565b6002825460ff166005811115610b9d57fe5b1415610c0857610b846001610b7e6002610c026003600960009054906101000a90046001600160a01b03166001600160a01b031663817b1cd26040518163ffffffff1660e01b8152600401602060405180830381600087803b158015610b4c57600080fd5b906122c1565b6004825460ff166005811115610c1a57fe5b1480610c3557506005825460ff166005811115610c3357fe5b145b1561012c57610b846001610b7e6004610c026005600960009054906101000a90046001600160a01b03166001600160a01b031663817b1cd26040518163ffffffff1660e01b8152600401602060405180830381600087803b158015610b4c57600080fd5b6000805b85811015610ee45760095442906001600160a01b0316635c16e15e898985818110610cc457fe5b905060200201356001600160a01b03166040518263ffffffff1660e01b815260040180826001600160a01b03168152602001915050602060405180830381600087803b158015610d1357600080fd5b505af1158015610d27573d6000803e3d6000fd5b505050506040513d6020811015610d3d57600080fd5b50511415610d4a57610edc565b836002016000888884818110610d5c57fe5b602090810292909201356001600160a01b03168352508101919091526040016000205460ff16610d8b57600080fd5b6001600160401b038816600090815260026020526040812090888884818110610db057fe5b602090810292909201356001600160a01b03168352508101919091526040016000205460ff1615610de057600080fd5b6001600160401b0388166000908152600260205260408120600191898985818110610e0757fe5b6001600160a01b0360209182029390930135831684528301939093526040909101600020805493151560ff199094169390931790925550600954610ed991166398807d84898985818110610e5757fe5b905060200201356001600160a01b03166040518263ffffffff1660e01b815260040180826001600160a01b03168152602001915050602060405180830381600087803b158015610ea657600080fd5b505af1158015610eba573d6000803e3d6000fd5b505050506040513d6020811015610ed057600080fd5b505183906122a8565b91505b600101610c9d565b5081811015610ef257600080fd5b60038301805460ff191660011790556040516001600160401b038816907f6085cc60943f0b976690a6f940d11a998d1a616c9469dc9196e763e342ca583f90600090a26001835460ff166005811115610f4757fe5b14156110be57610f55612366565b6001600160401b038816600090815260036020908152604091829020825160608101845281546001600160a01b03168152600180830154828501526002808401805487516101009482161594909402600019011691909104601f8101869004860283018601875280835292959394938601939192909183018282801561101c5780601f10610ff15761010080835404028352916020019161101c565b820191906000526020600020905b815481529060010190602001808311610fff57829003601f168201915b505050919092525050600a5482516020808501516040805163a9059cbb60e01b81526001600160a01b039485166004820152602481019290925251959650919092169363a9059cbb9350604480830193928290030181600087803b15801561108357600080fd5b505af1158015611097573d6000803e3d6000fd5b505050506040513d60208110156110ad57600080fd5b50516110b857600080fd5b5061150f565b6002835460ff1660058111156110d057fe5b1415611159576009546001600160401b038816600090815260046020819052604080832054815163791cbf9f60e11b81526001600160a01b0391821693810193909352905193169263f2397f3e9260248084019391929182900301818387803b15801561113c57600080fd5b505af1158015611150573d6000803e3d6000fd5b5050505061150f565b6003835460ff16600581111561116b57fe5b14156111d3576009546001600160401b0388166000908152600560205260408082205481516316d4489b60e11b81526001600160a01b0391821660048201529151931692632da891369260248084019391929182900301818387803b15801561113c57600080fd5b6004835460ff1660058111156111e557fe5b1415611460576111f3612390565b6001600160401b038816600090815260066020908152604091829020825160608101845281546001600160a01b031681526001820180548551818602810186019096528086529194929385810193929083018282801561127c57602002820191906000526020600020905b81546001600160a01b0316815260019091019060200180831161125e575b5050509183525050600282810180546040805160206001841615610100026000190190931694909404601f8101839004830285018301909152808452938101939083018282801561130e5780601f106112e35761010080835404028352916020019161130e565b820191906000526020600020905b8154815290600101906020018083116112f157829003601f168201915b505050505081525050905060005b8160200151518110156113d057600954602083015180516001600160a01b03909216916399a88ec491908490811061135057fe5b602002602001015184600001516040518363ffffffff1660e01b815260040180836001600160a01b03168152602001826001600160a01b0316815260200192505050600060405180830381600087803b1580156113ac57600080fd5b505af11580156113c0573d6000803e3d6000fd5b50506001909201915061131c9050565b5060095481516040805163791cbf9f60e11b81526001600160a01b0392831660048201529051919092169163f2397f3e91602480830192600092919082900301818387803b15801561142157600080fd5b505af1158015611435573d6000803e3d6000fd5b50509151600980546001600160a01b0319166001600160a01b039092169190911790555061150f9050565b6005835460ff16600581111561147257fe5b141561012c576001600160401b03871660009081526007602052604080822054600880546001600160a01b0319166001600160a01b039283161790819055600954835163f2fde38b60e01b815291831660048301529251929091169263f2fde38b9260248084019382900301818387803b1580156114ef57600080fd5b505af1158015611503573d6000803e3d6000fd5b5050505061150f6107c9565b50506000805460ff191690555050505050565b60008061152f6004612089565b905060005b8581101561159157600a546001600160a01b031687878381811061155457fe5b905060200201356001600160a01b03166001600160a01b0316141561157857611591565b600019860181141561158957600080fd5b600101611534565b506040518060600160405280886001600160a01b03168152602001878780806020026020016040519081016040528093929190818152602001838360200280828437600092019190915250505090825250604080516020601f88018190048102820181019092528681529181019190879087908190840183828082843760009201829052509390945250506001600160401b0384168152600660209081526040909120835181546001600160a01b0319166001600160a01b0390911617815583820151805191935061166a9260018501929101906123ba565b50604082015180516116869160028401916020909101906122e8565b5050604080516001600160a01b038a16815290516001600160401b03841692507ffd08ecdf1b11b329fffd11e68af1d1f874ca2e56aa45a1e13065e6cc26373b2c9181900360200190a29695505050505050565b600160208190526000918252604090912080549181015460039091015460ff8084169361010090046001600160a01b031692911684565b6009546001600160a01b031690565b6004602090815260009182526040918290208054600180830180548651600261010094831615949094026000190190911692909204601f81018690048602830186019096528582526001600160a01b039092169492939092908301828280156117ca5780601f1061179f576101008083540402835291602001916117ca565b820191906000526020600020905b8154815290600101906020018083116117ad57829003601f168201915b5050505050905082565b60036020908152600091825260409182902080546001808301546002808501805488516101009582161595909502600019011691909104601f81018790048702840187019097528683526001600160a01b039093169590949192918301828280156118805780601f1061185557610100808354040283529160200191611880565b820191906000526020600020905b81548152906001019060200180831161186357829003601f168201915b5050505050905083565b6000806118976001612089565b90506040518060600160405280876001600160a01b0316815260200186815260200185858080601f01602080910402602001604051908101604052809392919081815260200183838082843760009201829052509390945250506001600160401b038416815260036020908152604091829020845181546001600160a01b0319166001600160a01b0390911617815584820151600182015591840151805192935061194b92600285019291909101906122e8565b50506040805187815290516001600160a01b03891692506001600160401b038416917fc6befa0284988cf06a62f33e703b26fa8fe104aff100ff179eb9b02174018530919081900360200190a395945050505050565b6008546001600160a01b0316156119b757600080fd5b8060006001600160401b03821660009081526001602052604090205460ff1660058111156119e157fe5b14156119ec57600080fd5b6001600160401b03811660009081526001602052604090206003015460ff1615611a1557600080fd5b6001600160401b038116600090815260016020819052604090912001544262278d0090910111611a4457600080fd5b6001600160401b03821660009081526001602052604090205461010090046001600160a01b03163314611a7657600080fd5b6001600160401b0382166000818152600160208190526040808320600301805460ff1916909217909155517f9253f303ac7bc301d8f26a3c594cf868be86bee4afd53c746f29cc0103a4274f9190a25050565b6008546001600160a01b031615611adf57600080fd5b8060006001600160401b03821660009081526001602052604090205460ff166005811115611b0957fe5b1415611b1457600080fd5b6001600160401b03811660009081526001602052604090206003015460ff1615611b3d57600080fd5b6001600160401b038116600090815260016020819052604090912001544262278d0090910111611b6c57600080fd5b6001600160401b0382166000818152600160209081526040808320338085526002909101909252808320805460ff19169055519092917f55b02b9855e513ee8f9281215332c8cf0f8304cadcdca4e1b3910609797103e691a35050565b6005602090815260009182526040918290208054600180830180548651600261010094831615949094026000190190911692909204601f81018690048602830186019096528582526001600160a01b039092169492939092908301828280156117ca5780601f1061179f576101008083540402835291602001916117ca565b6008546001600160a01b031615611c5e57600080fd5b8060006001600160401b03821660009081526001602052604090205460ff166005811115611c8857fe5b1415611c9357600080fd5b6001600160401b03811660009081526001602052604090206003015460ff1615611cbc57600080fd5b6001600160401b038116600090815260016020819052604090912001544262278d0090910111611ceb57600080fd5b6001600160401b0382166000818152600160208181526040808420338086526002909101909252808420805460ff191690931790925590519092917fc7442600edbdac0b51781946ea453c6ec64fba32dc76e7e711cbe79a15ec5fec91a35050565b6008546001600160a01b0316151590565b600080611d6b6002612089565b90506040518060400160405280866001600160a01b0316815260200185858080601f01602080910402602001604051908101604052809392919081815260200183838082843760009201829052509390945250506001600160401b0384168152600460209081526040909120835181546001600160a01b0319166001600160a01b03909116178155838201518051919350611e0d9260018501929101906122e8565b5050604080516001600160a01b038816815290516001600160401b03841692507f29cd6c86b51064508c60d447e776b80d8c6f25603856be845b6a2abe192a00779181900360200190a2949350505050565b6008546001600160a01b031690565b60066020908152600091825260409182902080546002808301805486516101006001831615026000190190911692909204601f81018690048602830186019096528582526001600160a01b039092169492939092908301828280156117ca5780601f1061179f576101008083540402835291602001916117ca565b6007602090815260009182526040918290208054600180830180548651600261010094831615949094026000190190911692909204601f81018690048602830186019096528582526001600160a01b039092169492939092908301828280156117ca5780601f1061179f576101008083540402835291602001916117ca565b600080611f756005612089565b90506040518060400160405280866001600160a01b0316815260200185858080601f01602080910402602001604051908101604052809392919081815260200183838082843760009201829052509390945250506001600160401b0384168152600760209081526040909120835181546001600160a01b0319166001600160a01b039091161781558382015180519193506120179260018501929101906122e8565b5050604080516001600160a01b038816815290516001600160401b03841692507f29ff7ec46662ba30200783e0d6cbe17047c2ab7058785f9d441e8b21a88e25749181900360200190a2949350505050565b600260209081526000928352604080842090915290825290205460ff1681565b6008546000906001600160a01b0316156120a257600080fd5b600a54604080516323b872dd60e01b8152336004820152306024820152678ac7230489e80000604482015290516001600160a01b03909216916323b872dd916064808201926020929091908290030181600087803b15801561210357600080fd5b505af1158015612117573d6000803e3d6000fd5b505050506040513d602081101561212d57600080fd5b505161213857600080fd5b600880546001600160401b03600160a01b80830482166001018216810267ffffffffffffffff60a01b19909316929092179283905560405191909204909116907fe1c41d4ba86fb17ee8e9f88a333876ca22e0d2940c46a544405bb18a6b932a5c90600090a2600854600160a01b90046001600160401b03166000908152600160208190526040909120805490918491839160ff19909116908360058111156121dd57fe5b0217905550805474ffffffffffffffffffffffffffffffffffffffff001916336101008102919091178255426001808401919091556000828152600284016020526040808220805460ff19169093179092556008549151600160a01b9092046001600160401b0316917fc7442600edbdac0b51781946ea453c6ec64fba32dc76e7e711cbe79a15ec5fec9190a35050600854600160a01b90046001600160401b0316919050565b600080821161229257600080fd5b600082848161229d57fe5b049150505b92915050565b6000828201838110156122ba57600080fd5b9392505050565b6000826122d0575060006122a2565b828202828482816122dd57fe5b04146122ba57600080fd5b828054600181600116156101000203166002900490600052602060002090601f016020900481019282601f1061232957805160ff1916838001178555612356565b82800160010185558215612356579182015b8281111561235657825182559160200191906001019061233b565b5061236292915061241b565b5090565b604051806060016040528060006001600160a01b0316815260200160008152602001606081525090565b604051806060016040528060006001600160a01b0316815260200160608152602001606081525090565b82805482825590600052602060002090810192821561240f579160200282015b8281111561240f57825182546001600160a01b0319166001600160a01b039091161782556020909201916001909101906123da565b50612362929150612430565b5b80821115612362576000815560010161241c565b5b808211156123625780546001600160a01b031916815560010161243156fea264697066735822122080d47e839f9e0da315a3ea234d429b745b77e91da5585f777fefdde5d8a10c4a64736f6c634300060c0033",
  "immutableReferences": {},
  "source": "// SPDX-License-Identifier: MIT\npragma solidity ^0.6.0;\n\nimport \"./SafeMath.sol\";\nimport \"./ReentrancyGuard.sol\";\nimport \"./IOwnershipTransferrable.sol\";\nimport \"./IVybeStake.sol\";\nimport \"./Vybe.sol\";\n\ncontract VybeDAO is ReentrancyGuard {\n    using SafeMath for uint256;\n\n    // Proposal fee of 10 VYBE. Used to prevent spam\n    uint256 constant PROPOSAL_FEE = 10 * 1e18;\n\n    event NewProposal(uint64 indexed proposal);\n\n    event FundProposed(\n        uint64 indexed proposal,\n        address indexed destination,\n        uint256 amount\n    );\n    event MelodyAdditionProposed(uint64 indexed proposal, address melody);\n    event MelodyRemovalProposed(uint64 indexed proposal, address melody);\n    event StakeUpgradeProposed(uint64 indexed proposal, address newStake);\n    event DAOUpgradeProposed(uint64 indexed proposal, address newDAO);\n\n    event ProposalVoteAdded(uint64 indexed proposal, address indexed staker);\n    event ProposalVoteRemoved(uint64 indexed proposal, address indexed staker);\n\n    event ProposalPassed(uint64 indexed proposal);\n    event ProposalRemoved(uint64 indexed proposal);\n\n    enum ProposalType {\n        Null,\n        Fund,\n        MelodyAddition,\n        MelodyRemoval,\n        StakeUpgrade,\n        DAOUpgrade\n    }\n    struct ProposalMetadata {\n        ProposalType pType;\n        // Allows the creator to withdraw the proposal\n        address creator;\n        // Used to mark proposals older than 30 days as invalid\n        uint256 submitted;\n        // Stakers who voted yes\n        mapping(address => bool) stakers;\n        // Whether or not the proposal is completed\n        // Stops it from being acted on multiple times\n        bool completed;\n    }\n\n    // The info string is intended for an URL to describe the proposal\n    struct FundProposal {\n        address destination;\n        uint256 amount;\n        string info;\n    }\n\n    struct MelodyAdditionProposal {\n        address melody;\n        string info;\n    }\n\n    struct MelodyRemovalProposal {\n        address melody;\n        string info;\n    }\n\n    struct StakeUpgradeProposal {\n        address newStake;\n        // List of addresses owned by the Stake contract\n        address[] owned;\n        string info;\n    }\n\n    struct DAOUpgradeProposal {\n        address newDAO;\n        string info;\n    }\n\n    mapping(uint64 => ProposalMetadata) public proposals;\n    mapping(uint64 => mapping(address => bool)) public used;\n    mapping(uint64 => FundProposal) public _fundProposals;\n    mapping(uint64 => MelodyAdditionProposal) public _melodyAdditionProposals;\n    mapping(uint64 => MelodyRemovalProposal) public _melodyRemovalProposals;\n    mapping(uint64 => StakeUpgradeProposal) public _stakeUpgradeProposals;\n    mapping(uint64 => DAOUpgradeProposal) public _daoUpgradeProposals;\n\n    // Address of the DAO we upgraded to\n    address _upgrade;\n    // ID to use for the next proposal\n    uint64 _nextProposalID;\n    IVybeStake private _stake;\n    Vybe private _VYBE;\n\n    // Check the proposal is valid\n    modifier pendingProposal(uint64 proposal) {\n        require(proposals[proposal].pType != ProposalType.Null);\n        require(!proposals[proposal].completed);\n        // Don't allow old proposals to suddenly be claimed\n        require(proposals[proposal].submitted + 30 days > block.timestamp);\n        _;\n    }\n\n    // Check this contract hasn't been replaced\n    modifier active() {\n        require(_upgrade == address(0));\n        _;\n    }\n\n    constructor(address stake) public {\n        _stake = IVybeStake(stake);\n        _VYBE = Vybe(_stake.vybe());\n    }\n\n    function upgraded() external view returns (bool) {\n        return _upgrade != address(0);\n    }\n\n    function upgrade() external view returns (address) {\n        return _upgrade;\n    }\n\n    function stake() external view returns (address) {\n        return address(_stake);\n    }\n\n    function _createNewProposal(ProposalType pType)\n        internal\n        active\n        returns (uint64)\n    {\n        // Make sure this isn't spam by transferring the proposal fee\n        require(_VYBE.transferFrom(msg.sender, address(this), PROPOSAL_FEE));\n\n        // Increment the next proposal ID now\n        // Means we don't have to return a value we subtract one from later\n        _nextProposalID += 1;\n        emit NewProposal(_nextProposalID);\n\n        // Set up the proposal's metadata\n        ProposalMetadata storage meta = proposals[_nextProposalID];\n        meta.pType = pType;\n        meta.creator = msg.sender;\n        meta.submitted = block.timestamp;\n        // Automatically vote for the proposal's creator\n        meta.stakers[msg.sender] = true;\n        emit ProposalVoteAdded(_nextProposalID, msg.sender);\n\n        return _nextProposalID;\n    }\n\n    function proposeFund(\n        address destination,\n        uint256 amount,\n        string calldata info\n    ) external returns (uint64) {\n        uint64 proposalID = _createNewProposal(ProposalType.Fund);\n        _fundProposals[proposalID] = FundProposal(destination, amount, info);\n        emit FundProposed(proposalID, destination, amount);\n        return proposalID;\n    }\n\n    function proposeMelodyAddition(address melody, string calldata info)\n        external\n        returns (uint64)\n    {\n        uint64 proposalID = _createNewProposal(ProposalType.MelodyAddition);\n        _melodyAdditionProposals[proposalID] = MelodyAdditionProposal(\n            melody,\n            info\n        );\n        emit MelodyAdditionProposed(proposalID, melody);\n        return proposalID;\n    }\n\n    function proposeMelodyRemoval(address melody, string calldata info)\n        external\n        returns (uint64)\n    {\n        uint64 proposalID = _createNewProposal(ProposalType.MelodyRemoval);\n        _melodyRemovalProposals[proposalID] = MelodyRemovalProposal(\n            melody,\n            info\n        );\n        emit MelodyRemovalProposed(proposalID, melody);\n        return proposalID;\n    }\n\n    function proposeStakeUpgrade(\n        address newStake,\n        address[] calldata owned,\n        string calldata info\n    ) external returns (uint64) {\n        uint64 proposalID = _createNewProposal(ProposalType.StakeUpgrade);\n\n        // Ensure the VYBE token was included as an owned contract\n        for (uint256 i = 0; i < owned.length; i++) {\n            if (owned[i] == address(_VYBE)) {\n                break;\n            }\n            require(i != owned.length - 1);\n        }\n        _stakeUpgradeProposals[proposalID] = StakeUpgradeProposal(\n            newStake,\n            owned,\n            info\n        );\n        emit StakeUpgradeProposed(proposalID, newStake);\n        return proposalID;\n    }\n\n    function proposeDAOUpgrade(address newDAO, string calldata info)\n        external\n        returns (uint64)\n    {\n        uint64 proposalID = _createNewProposal(ProposalType.DAOUpgrade);\n        _daoUpgradeProposals[proposalID] = DAOUpgradeProposal(newDAO, info);\n        emit DAOUpgradeProposed(proposalID, newDAO);\n        return proposalID;\n    }\n\n    function addVote(uint64 proposalID)\n        external\n        active\n        pendingProposal(proposalID)\n    {\n        proposals[proposalID].stakers[msg.sender] = true;\n        emit ProposalVoteAdded(proposalID, msg.sender);\n    }\n\n    function removeVote(uint64 proposalID)\n        external\n        active\n        pendingProposal(proposalID)\n    {\n        proposals[proposalID].stakers[msg.sender] = false;\n        emit ProposalVoteRemoved(proposalID, msg.sender);\n    }\n\n    // Send the VYBE held by this contract to what it upgraded to\n    // Intended to enable a contract like the timelock, if transferred to this\n    // Without this, it'd be trapped here, forever\n    function forwardVYBE() public {\n        require(_upgrade != address(0));\n        require(_VYBE.transfer(_upgrade, _VYBE.balanceOf(address(this))));\n    }\n\n    // Complete a proposal\n    // Takes in a list of stakers so this contract doesn't have to track them all in an array\n    // This would be extremely expensive as a stakers vote weight can drop to 0\n    // This selective process allows only counting meaningful votes\n    function completeProposal(uint64 proposalID, address[] calldata stakers)\n        external\n        active\n        pendingProposal(proposalID)\n        noReentrancy\n    {\n        ProposalMetadata storage meta = proposals[proposalID];\n\n        uint256 requirement;\n        // Only require a majority vote for a funding request/to remove a melody\n        if (\n            (meta.pType == ProposalType.Fund) ||\n            (meta.pType == ProposalType.MelodyRemoval)\n        ) {\n            requirement = _stake.totalStaked().div(2).add(1);\n\n            // Require >66% to add a new melody\n            // Adding an insecure or malicious melody will cause the staking pool to be drained\n        } else if (meta.pType == ProposalType.MelodyAddition) {\n            requirement = _stake.totalStaked().div(3).mul(2).add(1);\n\n            // Require >80% to upgrade the stake/DAO contract\n            // Upgrading to an insecure or malicious contract risks unlimited minting\n        } else if (\n            (meta.pType == ProposalType.StakeUpgrade) ||\n            (meta.pType == ProposalType.DAOUpgrade)\n        ) {\n            requirement = _stake.totalStaked().div(5).mul(4).add(1);\n\n            // Panic in case the enum is expanded and not properly handled here\n        } else {\n            require(false);\n        }\n\n        // Make sure there's enough vote weight behind this proposal\n        uint256 votes = 0;\n        for (uint256 i = 0; i < stakers.length; i++) {\n            // Don't allow people to vote with flash loans\n            if (_stake.lastClaim(stakers[i]) == block.timestamp) {\n                continue;\n            }\n            require(meta.stakers[stakers[i]]);\n            require(!used[proposalID][stakers[i]]);\n            used[proposalID][stakers[i]] = true;\n            votes = votes.add(_stake.staked(stakers[i]));\n        }\n        require(votes >= requirement);\n        meta.completed = true;\n        emit ProposalPassed(proposalID);\n\n        if (meta.pType == ProposalType.Fund) {\n            FundProposal memory proposal = _fundProposals[proposalID];\n            require(_VYBE.transfer(proposal.destination, proposal.amount));\n        } else if (meta.pType == ProposalType.MelodyAddition) {\n            _stake.addMelody(_melodyAdditionProposals[proposalID].melody);\n        } else if (meta.pType == ProposalType.MelodyRemoval) {\n            _stake.removeMelody(_melodyRemovalProposals[proposalID].melody);\n        } else if (meta.pType == ProposalType.StakeUpgrade) {\n\n                StakeUpgradeProposal memory proposal\n             = _stakeUpgradeProposals[proposalID];\n            for (uint256 i = 0; i < proposal.owned.length; i++) {\n                _stake.upgrade(proposal.owned[i], proposal.newStake);\n            }\n\n            // Register the new staking contract as a melody so it can move the funds over\n            _stake.addMelody(address(proposal.newStake));\n\n            _stake = IVybeStake(proposal.newStake);\n        } else if (meta.pType == ProposalType.DAOUpgrade) {\n            _upgrade = _daoUpgradeProposals[proposalID].newDAO;\n            _stake.transferOwnership(_upgrade);\n            forwardVYBE();\n        } else {\n            require(false);\n        }\n    }\n\n    // Voluntarily withdraw a proposal\n    function withdrawProposal(uint64 proposalID)\n        external\n        active\n        pendingProposal(proposalID)\n    {\n        require(proposals[proposalID].creator == msg.sender);\n        proposals[proposalID].completed = true;\n        emit ProposalRemoved(proposalID);\n    }\n}\n",
  "sourcePath": "/Users/nanoissuperior/vybe/contracts/VybeDAO.sol",
  "compiler": {
    "name": "solc",
    "version": "0.6.12+commit.27d51765.Emscripten.clang"
  },
  "schemaVersion": "3.2.4",
  "updatedAt": "2020-11-08T17:05:40.860Z",
  "networkType": "ethereum",
  "devdoc": {
    "kind": "dev",
    "methods": {},
    "version": 1
  },
  "userdoc": {
    "kind": "user",
    "methods": {},
    "version": 1
  }
}